:0400000061EF00F0BC
:10000800FACFBEF0FBCFBFF0E9CFC0F0F9EF09F0AF
:10001800D8CF1FF0E8CF20F0E0CF21F0FACF22F0C0
:10002800FBCF23F0E9CF24F0EACF25F0E1CF26F08B
:10003800E2CF27F0D9CF28F0DACF29F0F3CF2AF092
:10004800F4CF2BF0F6CF2CF0F7CF2DF0F8CF2EF021
:10005800F5CF2FF09EA001D001D004D09E9081EC66
:100068000CF000D09EAA01D001D004D09E9A55EC85
:1000780008F000D02FC0F5FF2EC0F8FF2DC0F7FF05
:100088002CC0F6FF2BC0F4FF2AC0F3FF29C0DAFF0B
:1000980028C0D9FF27C0E2FF26C0E1FF25C0EAFF3C
:1000A80024C0E9FF23C0FBFF22C0FAFF21C0E0FF04
:1000B80020C0E8FF1FC0D8FF100023EF0DF000019B
:1000C800B36F000E00010001BD6F0001B3510001C4
:1000D800B36F000E00010001B86F0001B3510001B9
:1000E800B36F000E00010001BC6F0001B3510001A5
:1000F800B36F000E00010001BB6F0001B351000196
:10010800B36F000E00010001B96F0001B351C6AC16
:1001180001D001D02AD0C69C000120EE0CF00001CD
:100128006051D92600016151DA22050EDF6E000107
:10013800B36F010E00010001B96F0001B351000156
:1001480020EE0EF000016051D92600016151DA223B
:10015800DF2A000120EE0DF000016051D9260001D0
:100168006151DA22040EDF6E00D0C7A001D001D0A1
:100178000BD0C9CFBAF00001B36F010E0001000126
:10018800BD6F0001B35100D000010001B96701D073
:1001980001D051D239D238D2C7A601D001D04BD222
:1001A800BDC099F000018DEC07F0000120EE0CF0C5
:1001B80000016051D92600016151DA22080EDF6280
:1001C80001D001D038D20001B36F000E0001000148
:1001D800BD6F0001B3510001B36F010E00010001B2
:1001E800BB6F0001B35127D226D225D2C7A801D0B0
:1001F80001D040D0000120EE0BF000016051D9265B
:1002080000016151DA22DF2A00010001BD51D8B492
:1002180001D001D023D0C7BA01D001D009D0000144
:10022800B36F010E00010001BC6F0001B35116D07D
:10023800000120EE0EF000016051D9260001615145
:10024800DA22DF2A000120EE0DF000016051D926E4
:1002580000016151DA22060EDF6E00D0000120EEA7
:100268000CF000016051D92600016151DA22050E17
:10027800DF6EE1D100010001BD51D8B401D001D039
:10028800DAD1000120EE0BF000016051D9260001FF
:100298006151DA22DF2AC7BA01D001D02DD0C7B404
:1002A80001D001D00CD0000120EE0CF0000160510B
:1002B800D92600016151DA22070EDF6EBCD1000198
:1002C80020EE0CF000016051D92600016151DA22BC
:1002D800080EDF6E0001B36F010E00010001BB6F55
:1002E8000001B3510001B36F000E00010001BD6FA2
:1002F8000001B351A0D19FD1000120EE0EF0000102
:100308006051D92600016151DA22DF2A000120EE6E
:100318000CF000016051D92600016151DA22050E66
:10032800DF6E000120EE0DF000016051D9260001BA
:100338006151DA22060EDF6E7ED17DD17CD17BD170
:10034800000120EE1AF000016051D9260001615128
:10035800DA22DF500001B36F000120EE19F000012E
:100368006051D92600016151DA22DF500001B35DE6
:10037800D8B001D001D032D0000120EE1AF000012F
:100388006051D92600016151DA22DF500001B36FB4
:100398000001B351010D0F0EF326000EF422F350A5
:1003A800000100016025D96EF450000100016121AF
:1003B800DA6EDF50C96E000120EE1AF000016051BC
:1003C800D92600016151DA22DF2A0001B36F010E3C
:1003D80000010001B86F0001B3512DD1000120EEDA
:1003E8000CF000016051D92600016151DA22050E96
:1003F800DF6E21D120D1C7A801D001D07BD0000168
:1004080020EE0BF000016051D92600016151DA227B
:10041800DF2A00010001BD51D8B401D001D055D068
:10042800C7AA01D001D02FD0000120EE0AF00001A8
:100438006051D92600016151DA22DF500001B36F03
:100448000001B351010DF350000100016025D96E80
:10045800F450000100016121DA6E0001BAC0DFFF2B
:10046800000120EE0AF000016051D9260001615117
:10047800DA22DF2A0001B36F010E00010001BC6F10
:100488000001B3512BD0000120EE0EF000016051A5
:10049800D92600016151DA22DF2A000120EE0DF091
:1004A80000016051D92600016151DA22060EDF6E83
:1004B800000120EE0CF000016051D92600016151C5
:1004C800DA22050EDF6E0AD009D00001B36F010EE3
:1004D80000010001BC6F0001B35100D0000120EE03
:1004E8000CF000016051D92600016151DA22050E95
:1004F800DF6EA1D000010001BD51D8B401D001D0F8
:100508009AD0000120EE0BF000016051D9260001BD
:100518006151DA22DF2AC7AA01D001D027D0000111
:1005280020EE0AF000016051D92600016151DA225B
:10053800DF500001B36F0001B351010DF35000010A
:1005480000016025D96EF450000100016121DA6EC6
:100558000001BAC0DFFF000120EE0AF0000160517F
:10056800D92600016151DA22DF2A65D0C7A401D05B
:1005780001D024D0000120EE0CF000016051D926F2
:1005880000016151DA22080EDF6E0001B36F010E1F
:1005980000010001BC6F0001B3510001B36F010EEF
:1005A80000010001BB6F0001B3510001B36F000EE1
:1005B80000010001BD6F0001B3513DD0000120EEE4
:1005C8000EF000016051D92600016151DA22DF2ABC
:1005D800000120EE0DF000016051D92600016151A3
:1005E800DA22060EDF6E000120EE0CF000016051E9
:1005F800D92600016151DA22050EDF6E1CD01BD00E
:100608001AD019D018D017D0000120EE0CF0000134
:100618006051D92600016151DA22DF50050AD8B4A9
:10062800BBD5030AD8B4E2D5010AD8B4E4D60F0A78
:10063800D8B486D600D000010001BD6701D001D032
:1006480007D000010001B851D8B401D001D007D0BB
:10065800C6B801D001D003D0C68801D000D00001AF
:1006680020EE0AF000016051D92600016151DA221A
:10067800080EDF6401D001D027D000010001BC675B
:1006880001D001D021D0000120EE0CF00001605112
:10069800D92600016151DA22050EDF6E000120EE35
:1006A8000EF000016051D92600016151DA22DF2ADB
:1006B800000120EE0DF000016051D92600016151C2
:1006C800DA22070EDF6E00D000010001BC51D8B459
:1006D80001D001D050D0000120EE0BF00001605194
:1006E800D92600016151DA22000110EE0AF000015A
:1006F8006051E12600016151E222E7500001B36F29
:100708000001B351010DF350000100016025E16EB5
:10071800F450000100016121E26EDFCFE7FF000124
:1007280020EE0AF000016051D92600016151DA2259
:10073800DF500001B36F0001B32900010001AF6F62
:100748000001B46F280E00010001B06F0001B45120
:1007580060C0B1F061C0B2F00001E6EC0CF000013D
:1007680020EE0AF000016051D92600016151DA2219
:10077800000EDF6E5ED0000120EE0EF00001605129
:10078800D92600016151DA22DF50D8B401D001D056
:1007980050D0000120EE0EF000016051D926000172
:1007A8006151DA22DF5000010001B56F000120EE2F
:1007B8000DF000016051D92600016151DA22DF50A5
:1007C80000010001B66F000120EE0BF0000160513E
:1007D800D92600016151DA22DF5000010001B76F0C
:1007E8000001B36F030E00010001AF6F0001B351A8
:1007F8000001B46F290E00010001B06F0001B4516F
:100808000001000E00010001B26F0001B50E0001E9
:10081800B16F0001E6EC0CF0000120EE0EF00001D3
:100828006051D92600016151DA22000EDF6E01D035
:1008380000D000010001BB51D8B401D001D020D0B4
:100848000001B36F000E00010001AF6F0001B3514A
:100858000001B46F2A0E00010001B06F0001B4510D
:1008680060C0B1F061C0B2F00001E6EC0CF000012C
:10087800B36F000E00010001BB6F0001B35100D03F
:100888001200E00ED36E9B8C0101010E01010101E3
:10089800A36F0101E10E0101A26F010150EC0DF0FF
:1008A8000101010E01010101A36F0101DF0E010128
:1008B800A26F010186EC0DF081EC0AF00101BF6F17
:1008C800960E00010001CC6F0101BF510001FCEC44
:1008D8000CF00101BF6F9B0E01010101A26F010124
:1008E800BF510101C06F000E01010101A36F010199
:1008F800C05101010AEC0CF09F909F9A9F869D863B
:100908000101BF6F6C0E01010101A26F0101BF510E
:10091800000E01010101A46F190E0101A36F01016D
:10092800ADEC09F0D8EC0DF0B3EC0DF00101BF6FA0
:10093800500E01010101A26F0101BF510101C06FF9
:10094800300E01010101A36F0101C0510101C16F06
:10095800220E01010101A46F0101C15101019CECAA
:100968000CF0000E01010101A36F010E0101A26F3D
:100978000101010E01010101A56F0101CA0E01016A
:10098800A46F0101BF6F500E01010101A66F0101A3
:10099800BF510101C06F300E01010101A76F0101B4
:1009A800C051010109EC09F000D0FAEC07F001018F
:1009B800BF6F0A0E01010101BA6F0101BF510101A8
:1009C800010E01010101BC6F0101E70E0101BB6FBE
:1009D8000101010E01010101BE6F0101CF0E0101EC
:1009E800BD6F0101CEEC0CF001010101E66F0101C0
:1009F8000101E6AF01D001D040D050D04FD04ED049
:100A08003CD00101010E01010101A36F0101DC0EBF
:100A18000101A26F01010101E7C1A4F10101010176
:100A2800A56B01010101E65101010101A66F010158
:100A3800A76B0101A6BFA7070101010E0101010172
:100A4800A96F0101CF0E0101A86F0101D3EC0DF0D0
:100A580025D0CFC1CEF122D0DEC1A2F10101010E15
:100A680001010101A46F0101C20E0101A36F01017F
:100A780081EC06F013D012D011D001010101E75129
:100A88000A0AD8B4BED7220AD8B4E3D7010AD8B420
:100A9800E0D7030AD8B4E0D701D000D00101BF6F76
:100AA8000A0E01010101BA6F0101BF510101010ED6
:100AB80001010101BC6F0101E70E0101BB6F0101DA
:100AC800010E01010101BE6F0101CF0E0101BD6FD1
:100AD8000101B6EC0CF001010101E66F0101010111
:100AE800E6AF01D001D057D060D75FD75ED753D0DB
:100AF8000101010E01010101A36F0101DF0E0101D6
:100B0800A26F01010101E7C1A4F101010101A56B77
:100B180001010101E65101010101A66F0101A76B65
:100B28000101A6BFA7070101010E01010101A96F7B
:100B38000101CF0E0101A86F0101BBEC0DF035D703
:100B480000D00101010E01010101A36F0101DA0EBC
:100B58000101A26F01010101E7C1A4F10101010135
:100B6800A56B01010101E65101010101A66F010117
:100B7800A76B0101A6BFA7070101010E0101010131
:100B8800A96F0101CF0E0101A86F01019AEC0BF0CA
:100B98000CD70BD70AD701010101E7510B0AD8B4CA
:100BA800A7D7150AD8B4CDD7010AD8B4CAD7FDD665
:100BB800FCD6FBD6FAD661EF00F0010120EE35F045
:100BC8000101AC51D9260101AD51DA22DF500101F2
:100BD8000101B56F01010101B5510D0DF35001017E
:100BE8000101AC2501010101B86FF45001010101B7
:100BF800AD210101B96F010EB8C1D9FFB9C1DAFF42
:100C0800DF6201D001D075D0010120EE01F00101B1
:100C1800B851D9260101B951DA22DF500101010189
:100C2800AE6101D001D003D0FD0E66D065D00101C0
:100C380020EE01F00101B851D9260101B951DA229B
:100C4800DF500101B36F0101B35101010101B66F1A
:100C58000101B76BB1C1A2F1B2C1A3F1030E010149
:100C68000101B8250101B36F000E01010101B9218D
:100C78000101B46FB3C1A4F1B4C1A5F1B6C1A6F125
:100C8800B7C1A7F1010144EC0BF0010120EE35F0EA
:100C98000101AC51D9260101AD51DA22010110EE52
:100CA80035F00101AC51E1260101AD51E222E750D6
:100CB8000101B36F0101B329030BDF6E010120EEBF
:100CC80002F00101B851D9260101B951DA22AFC1A8
:100CD800E1FFB0C1E2FFDFCFE7FFB8C1D9FFB9C17B
:100CE800DAFF000EDF6E01010101B65105D004D014
:100CF80003D0FC0E01D000D01200000120EE19F044
:100D080000016051D92600016151DA22000EDF6E20
:100D180043D0000120EE19F000016051D9260001EE
:100D28006151DA22DF500101A56F0101A551010DC2
:100D3800F35001010101A325D96EF450010101010D
:100D4800A421DA6E000110EE19F000016051E126CD
:100D580000016151E222E7500101A66F0101A6518D
:100D6800010D0F0EF326000EF422F35000010001CE
:100D78006025E16EF450000100016121E26EDFCFD1
:100D8800E7FF000120EE19F000016051D9260001AB
:100D98006151DA22DF2A00D0000120EE19F00001AB
:100DA8006051D92600016151DA22DF500101A56F97
:100DB80001010101A2510101A55DD8A001D001D016
:100DC800A8D700D0000120EE19F000016051D92603
:100DD80000016151DA220101A2C1DFFF000120EE0A
:100DE8001AF000016051D92600016151DA22010E82
:100DF800DF6E000120EE0FF000016051D9260001DE
:100E08006151DA22DF50C96EC68812000001000164
:100E1800A5C0AAF000010001AB6B000120EE34F080
:100E28000001A351D9260001A451DA22DF500001A4
:100E38000001AC6F00010001AC510D0DF350000131
:100E48000001A32500010001AD6FF450000100016D
:100E5800A4210001AE6FADC0D9FFAEC0DAFFDF50EC
:100E6800D8B401D001D003D0FF0E52D051D0000128
:100E780020EE01F00001AD51D9260001AE51DA2271
:100E88000001A5C0DFFF000120EE02F00001AD5116
:100E9800D9260001AE51DA220001A6C0DFFF030EF9
:100EA80000010001AD2500010001996F000E00014D
:100EB8000001AE2100019A6FA7C09BF0A8C09CF06A
:100EC800AAC09DF0ABC09EF000016FEC0BF00001D2
:100ED80020EE34F00001A351D9260001A451DA22F2
:100EE800000110EE34F00001A351E1260001A451E5
:100EF800E222E7500001A96F0001A929030BDF6E68
:100F0800ADC0D9FFAEC0DAFF010EDF6E010E00D012
:100F18001200000120EE0BF000016051D9260001FB
:100F28006151DA22010EDF6E000120EE0AF00001A5
:100F38006051D92600016151DA22000EDF6E0001EE
:100F480000019951D8B401D001D043D0C7AA01D02B
:100F580001D021D0000120EE0CF000016051D9260B
:100F680000016151DA22050EDF6E000120EE0EF05D
:100F780000016051D92600016151DA22DF2A0001FF
:100F880020EE0DF000016051D92600016151DA22EE
:100F9800050EDF6E2AD0C7A401D001D00CD0000105
:100FA80020EE0CF000016051D92600016151DA22CF
:100FB800080EDF6E1AD0000120EE0CF0000160511F
:100FC800D92600016151DA22070EDF6E0ED00DD04E
:100FD8000CD0000120EE0CF000016051D926000170
:100FE8006151DA22060EDF6E00D01200010118EC02
:100FF8000BF001010101A7510101A611D8A401D0EC
:1010080001D002D04DD04CD00101A86F010E0001D3
:101018000001626F0101A85100D00101010E010118
:101028000101A36F01016C0E0101A26F01012DECFA
:101038000CF00009D8B401D001D00AD00101A86F82
:10104800000E00010001626F0101A85129D028D0CB
:101058000001000E01010101A36F0001630E0101EF
:10106800A26F01012DEC0CF00009D8B401D001D019
:101078000AD00101A86F000E00010001626F010192
:10108800A8510ED00DD00101A86F0A0E0001000171
:10109800CC6F0101A851000172EC0DF0BED7BDD78D
:1010A80012009EAA01D001D041D020EE04F03050A9
:1010B800D9263150DA22DF501B6E1B50010DF35038
:1010C8003024D96EF4503120DA6E49EC0CF0DF6E22
:1010D80020EE04F03050D9263150DA22DF2A20EEF3
:1010E80004F03050D9263150DA22040EDF6201D0E4
:1010F80001D01CD020EE04F03050D9263150DA222D
:10110800DF50176E1B6E1F0E186E1B5030C019F083
:1011180031C01AF011EC0DF020EE04F03050D92651
:101128003150DA22000EDF6E01D000D032A601D095
:1011380001D011D0AC98AC881B6E000E176E1B50F6
:101148001C6E1E0E186E1C50000E1A6E000E196EC4
:1011580011EC0DF000D012000DC012F0136A20EE51
:1011680034F00B50D9260C50DA22DF50146E14508C
:101178000D0DF3500B24156EF4500C20166E15C08F
:10118800D9FF16C0DAFFDF50D8B401D001D003D0A0
:10119800FF0E3AD039D020EE01F01550D92616505E
:1011A800DA220DC0DFFF20EE02F01550D9261650C6
:1011B800DA220EC0DFFF030E1524016E000E162082
:1011C800026E0FC003F010C004F012C005F013C087
:1011D80006F0E6EC0BF020EE34F00B50D9260C505C
:1011E800DA2210EE34F00B50E1260C50E222E750E0
:1011F800116E1128030BDF6E15C0D9FF16C0DAFF78
:10120800010EDF6E010E00D01200C3EC0DF00101DB
:101218000101A6510101A62500010001CC6F0001C2
:101228005DEC0DF0A7C1CCF000015DEC0DF0000EF7
:1012380001010101AA6F000E0101A96F22D0C3ECC0
:101248000DF0D88001010101A63500010001CC6F25
:1012580000015DEC0DF001010101A951010101013D
:10126800A425D96E01010101AA5101010101A5219D
:10127800DA6E33EC0DF0DF6E01010101A94BAA2BE8
:1012880000D001010101AA51800A0101A86F0101E2
:10129800A25101010101A95D01010101A351800AC7
:1012A8000101A859D8A001D001D0C9D700D08FEC2E
:1012B8000DF0CBEC0DF0120000010001626701D0C7
:1012C80001D002D045D044D00001E9EC0AF0000179
:1012D80000019C5100019B11D8B401D001D002D06B
:1012E80037D036D000017CEC0DF0000100019A5196
:1012F80000019911D8A401D001D002D029D028D05A
:101308000101010E000100019A6F01016C0E00013C
:10131800996F000165EC0CF00009D8B401D001D038
:1013280002D016D015D00001000E000100019A6FFE
:101338000001630E0001996F000165EC0CF00009D3
:10134800D8B401D001D002D003D002D0DCEC0DF02B
:101358001200000EAD6E000EAC6E01010101A2A1DB
:1013680001D001D001D0AD8801010101A2A301D0B3
:1013780001D002D0AD8CAC8C01010101A2A501D035
:1013880001D001D0AD8E01010101A2A701D001D089
:1013980002D0AC8801D0AC8A01010101A2A901D018
:1013A80001D001D0AD8401010101A2AB01D001D06F
:1013B80001D0AC8601010101A2AD01D001D002D05B
:1013C8009D8A01D09D9A01010101A2AF01D001D0EF
:1013D80002D09D8801D09D98A3C1B0FF01010101F1
:1013E800A4517F6EAD8AAC8E1200EACFC1F0E1CF76
:1013F800C2F0E2CFC3F0D9CFC4F0DACFC5F0F3CF53
:10140800C6F0F4CFC7F0F6CFC8F0F7CFC9F0F8CFE1
:10141800CAF0F5CFCBF09EA601D001D004D09E969D
:1014280063EC00F000D0F2A401D001D004D0F29413
:10143800C1EC0BF000D060EC09F0CBC0F5FFCAC0DE
:10144800F8FFC9C0F7FFC8C0F6FFC7C0F4FFC6C0A1
:10145800F3FFC5C0DAFFC4C0D9FFC3C0E2FFC2C0F2
:10146800E1FFC1C0EAFFC0C0E9FFBFC0FBFFBEC0CB
:10147800FAFF1100010120EE34F00101A251D92632
:101488000101A351DA22000EDF6E010120EE35F0D2
:101498000101A251D9260101A351DA22000EDF6E03
:1014A8000001CC6F000E01010101A46F0001CC51B5
:1014B800030E01010101A46501D001D002D01CD0A6
:1014C8001BD001010101A4510D0DF35001010101CF
:1014D800A225D96EF45001010101A321DA6E000E94
:1014E800DF6E01010101A42B030E01010101A465B6
:1014F80001D001D0E6D700D012000101A56F000E7F
:1015080000010001626F0101A5510001000E0101F7
:101518000101A36F0001630E0101A26F01013EECFE
:101528000AF00101010E01010101A36F01016C0E16
:101538000101A26F01013EEC0AF00101010E010157
:101548000101A36F0101360E0101A26F01013EECFA
:101558000AF00101010E01010101A36F0101000E52
:101568000101A26F01013EEC0AF01200F2AC01D0B9
:1015780001D00AD0000E01010101A56F000E010182
:10158800A46F22D021D020D0010168EC0DF0010118
:101598000101A3510101A211D8B401D001D00AD090
:1015A800000E01010101A56F000E0101A46F0CD00E
:1015B8000BD00AD0000E01010101A56F010E010137
:1015C800A46F02D001D000D01200F2AC01D001D03B
:1015D8000AD0000E000100019C6F000E00019B6FF5
:1015E80022D021D020D000017CEC0DF000010001B8
:1015F8009A5100019911D8B401D001D00AD0000E37
:10160800000100019C6F000E00019B6F0CD00BD0F5
:101618000AD0000E000100019C6F010E00019B6FB3
:1016280002D001D000D012000101BAEC0AF0010189
:101638000101A5510101A411D8A401D001D016D0EF
:10164800010168EC0DF001010101A3510101A21192
:10165800D8A401D001D00AD0000E01010101A76F62
:10166800010E0101A66F0BD00AD009D0000E0101AE
:101678000101A76F000E0101A66F01D000D0120072
:10168800A4C1AAF1A5C1ABF1A2C1A8F1A3C1A9F156
:1016980013D0AAC1D9FFABC1DAFFA8C1E1FFA9C124
:1016A800E2FFDFCFE7FF01010101AA4BAB2B0101EC
:1016B8000101A84BA92B00D001010101A607D8A060
:1016C800A7070101A629D8B4A729D8A401D001D019
:1016D800E0D700D012009BC0A1F09CC0A2F099C036
:1016E8009FF09AC0A0F013D0A1C0D9FFA2C0DAFF22
:1016F8009FC0E1FFA0C0E2FFDFCFE7FF00010001CC
:10170800A14BA22B000100019F4BA02B00D0000190
:1017180000019D07D8A09E0700019D29D8B49E29E5
:10172800D8A401D001D0E0D700D0120001010101F6
:10173800A4511E0AA511D8A401D001D002D01CD0F2
:101748001BD001010101A4511F0AA511D8A401D081
:1017580001D012D001010101A65101010101A82502
:10176800D96E01010101A75101010101A921DA6E18
:10177800000EDF6E01D000D012000001B36F000E22
:1017880000010001AF6F0001B3510001B46F0A0EF0
:1017980000010001B06F0001B451000E000100010A
:1017A800B26F000E0001B16F0001E6EC0CF0000E04
:1017B800000100019A6F000E0001996F0001AAEC68
:1017C8000DF0120003C009F004C00AF001C007F0D0
:1017D80002C008F00FD009C0D9FF0AC0DAFF07C05D
:1017E800E1FF08C0E2FFDFCFE7FF094A0A2A074AFC
:1017F800082A00D00506D8A006060528D8B4062869
:10180800D8A401D001D0E7D700D01200010101010E
:10181800A351F30B9A6EA2C1CCF07F0E0001CC1736
:101828000001D890CC35CD6E000ECF6E000ECE6E76
:101838009E9001010101A2AF01D001D002D09D808C
:1018480001D09D909AAE01D001D001D09A86CD806A
:101858001200010120EE35F00101A251D926010143
:10186800A351DA22DF500001CC6F0001CC510D0DDD
:10187800F35001010101A225D96EF45001010101C3
:10188800A321DA6EDF5000D01200F20E3216ACAC93
:1018980001D001D007D03290ACA001D001D002D045
:1018A800328000D0ACA401D001D001D03284ACA2E7
:1018B80001D001D001D03286AFCF01F0015000D065
:1018C8001200000120EE35F000019951D9260001DF
:1018D8009A51DA22DF5000019B6F00019B510D0DD8
:1018E800F350000100019925D96EF4500001000160
:1018F8009A21DA6EDF5000D0120098EC0DF001C08A
:101908001DF002C01EF01B6E000E176E1B501C6EE1
:101918000B0E186E1C50000E1A6E000E196E11EC8C
:101928000DF0000E026E000E016EA1EC0DF012001B
:10193800C3EC0DF001010101A2510101A225000132
:101948000001CC6F00015DEC0DF0A3C1CCF00001EB
:101958005DEC0DF0A4C1CCF000015DEC0DF0CBEC1A
:101968000DF012000001000E01010101AD6F000130
:10197800630E0101AC6FBAC1AEF1BBC1AFF1BCC11E
:10198800B0F1BDC1B1F1BEC1B2F10101E1EC05F0A8
:1019980000D012000101010E01010101AD6F01012A
:1019A8006C0E0101AC6FBAC1AEF1BBC1AFF1BCC1E5
:1019B800B0F1BDC1B1F1BEC1B2F10101E1EC05F078
:1019C80000D012000101010E00010001A46F010105
:1019D8006C0E0001A36FAFC0A5F0B0C0A6F0B1C0F7
:1019E800A7F0B2C0A8F000010AEC07F000D012007E
:1019F80000010001CC517F0BD56E000ED76E000E92
:101A0800D66EF29400010001CCAF01D001D002D013
:101A1800F28A01D0F29AD58E12000001000E0C6EE7
:101A28000001630E0B6E17C00DF018C00EF019C040
:101A38000FF01AC010F0B0EC08F000D0120001EE60
:101A480000F0A20EEE6AE806FDE100EE60F0390E45
:101A5800EE6AE806FDE1326A000145EF04F0C5864A
:101A680000D0C7A001D001D0FCD7C9CFCCF042EC40
:101A78000DF000010001CC5100D0120001D000D0BF
:101A8800C5501F0BD8A401D001D0FAD7C7B401D0D4
:101A980001D0F6D700D01200A2C130F0A3C131F0B6
:101AA80020EE04F03050D9263150DA22000EDF6ED5
:101AB8001200CCC0C9FF00D0C7B001D001D0FCD7FC
:101AC80000D042EC0DF01200000EF2AE010E010142
:101AD8000101A26F0101A36B00D01200FA0E00F001
:101AE800E82EFDD700010001CC2FF8D700D0120056
:101AF800000EF2AE010E00010001996F00019A6B11
:101B080000D01200A2C1D9FFA3C1DAFF000EDE6E19
:101B1800000EDD6E1200C58AC58800D0C5B801D098
:101B280001D0FCD700D01200CECF03F0CFCF04F005
:101B380003C001F004C002F0120001C003F002C0AB
:101B480004F004C0CFFF03C0CEFF120099C09BF081
:101B58009AC09CF09CC0D7FF9BC0D6FF1200948609
:101B68009488C78E280EC66E280EC86E1200A2C1B1
:101B7800D9FFA3C1DAFFDE2A000EDD221200C580DC
:101B880000D0C5B001D001D0FCD700D01200C58468
:101B980000D0C5B401D001D0FCD700D01200A8C134
:101BA800AAF1A9C1ABF11200D08EF28EF28C12000C
:061BB800D38E03001200B1
:08FFF8008AF795FFF2F9FFF111
:00000001FF
