:0400000061EF00F0BC
:10000800FACF7CF0FBCF7DF0E9CF7EF000ED07F072
:10001800D8CF1FF0E8CF20F0E0CF21F0FACF22F0C0
:10002800FBCF23F0E9CF24F0EACF25F0E1CF26F08B
:10003800E2CF27F0D9CF28F0DACF29F0F3CF2AF092
:10004800F4CF2BF0F6CF2CF0F7CF2DF0F8CF2EF021
:10005800F5CF2FF09EA001D001D004D09E90D7EC10
:1000680008F000D09EAA01D001D004D09E9A56EC88
:1000780005F000D02FC0F5FF2EC0F8FF2DC0F7FF08
:100088002CC0F6FF2BC0F4FF2AC0F3FF29C0DAFF0B
:1000980028C0D9FF27C0E2FF26C0E1FF25C0EAFF3C
:1000A80024C0E9FF23C0FBFF22C0FAFF21C0E0FF04
:1000B80020C0E8FF1FC0D8FF100026EF09F0FC0E93
:1000C800D36E9B8C0201020E000100018E6F0201AB
:1000D8004A0E00018D6F00018EEC09F00201020E3C
:1000E800000100018B6F0201460E00018A6F0001BA
:1000F800E9EC0AF08BEC07F0000E926E89680001BB
:10010800A76F960E000100018A6F0001A751000138
:100118007DEC0AF00001A76FF50E000100018A6F5F
:100128000001A7510001AEEC09F09F909F9A9F86AD
:100138009D8692EC0AF0A6EC0AF00001A76F4F0E1C
:10014800000100018E6F0001A7510001EBEC04F0E3
:100158000001A76F490E000100018F6F0001A75130
:10016800000180EC04F000D010EC04F00001A76F4F
:100178000A0E00010001A26F0001A7510201020E40
:1001880000010001A46F0201490E0001A36F0201E2
:10019800020E00010001A66F0201370E0001A56FD3
:1001A800000121EC0AF002010201486F020102017C
:1001B80048AF01D001D032D042D041D040D02ED06B
:1001C8000201020E000100018B6F0201440E0001C2
:1001D8008A6F0201000149C28CF0000100018D6B99
:1001E800020102014851000100018E6F00018F6B6E
:1001F80000018EBF8F070201020E00010001916FFE
:100208000201370E0001906F00011AEC0BF017D0B5
:1002180037C236F214D013D012D011D00201020125
:1002280049510A0AD8B4CCD7220AD8B4F1D7010A5E
:10023800D8B4EED7030AD8B402D001D000D0000158
:10024800A76F0A0E00010001A26F0001A751020169
:10025800020E00010001A46F0201490E0001A36F04
:100268000201020E00010001A66F0201370E000113
:10027800A56F000139EC0AF002010201486F020182
:10028800020148AF01D001D072D06ED76DD76CD7BC
:100298006ED00001A76F4F0E000100018A6F0001A8
:1002A800A7510001A86F100E000100018B6F00011B
:1002B800A8510001A96F080E000100018C6F000110
:1002C800A951000164EC06F00201020E00010001D0
:1002D8008B6F0201460E00018A6F0201000149C2BC
:1002E8008CF0000100018D6B0201020148510001F0
:1002F80000018E6F00018F6B00018EBF8F07020116
:10030800020E00010001916F0201370E0001906F8B
:1003180000010DEC0BF028D700D00201020E0001FD
:1003280000018B6F0201420E00018A6F0201000179
:1003380049C28CF0000100018D6B02010201485195
:10034800000100018E6F00018F6B00018EBF8F07C7
:100358000201020E00010001916F0201370E000137
:10036800906F0001FFEC08F0FFD6FED6FDD6020123
:10037800020149510B0AD8B48CD7150AD8B4CDD785
:10038800010AD8B4CAD7F0D6EFD6EED6EDD661EFCB
:1003980000F08950895005D11BD1000120EE0BF0E7
:1003A8000001AA51D9260001AB51DA22DF50000121
:1003B800606F000120EE0AF00001AA51D926000161
:1003C800AB51DA22DF500001605DD8B001D001D016
:1003D80026D0000120EE0BF00001AA51D926000119
:1003E800AB51DA22DF500001606F00016051010D4E
:1003F800F35000010001AA25D96EF4500001000154
:10040800AB21DA6EDF50C96E000120EE0BF000015F
:10041800AA51D9260001AB51DA22DF2AD9D000012E
:1004280020EE0DF00001AA51D9260001AB51DA22C5
:10043800000EDF6EC584CCD0CBD045D0AAC0D9FF82
:10044800ABC0DAFFDF50C96E000120EE0BF00001EF
:10045800AA51D9260001AB51DA22DF2AB9D0C584C6
:10046800000120EE0BF00001AA51D9260001AB5182
:10047800DA22DF2AADD0C580000120EE01F00001AC
:10048800AA51D9260001AB51DA22DF500001606F72
:100498000001D8806035C96E000120EE0BF0000124
:1004A800AA51D9260001AB51DA22000EDF6E0001F5
:1004B80020EE0DF00001AA51D9260001AB51DA2235
:1004C800030EDF6E85D0000120EE0BF00001AA516B
:1004D800D9260001AB51DA22DF50000AD8B4AED7D2
:1004E800010AD8B4BCD7030AD8B4C5D771D070D024
:1004F800C5B601D001D002D0C58600D0000120EEDB
:100508000BF00001AA51D9260001AB51DA22DF50C5
:100518000001606F000120EE0AF00001AA51D926FF
:100528000001AB51DA22DF500001605DD8B001D084
:1005380001D027D0000120EE0BF00001AA51D926E6
:100548000001AB51DA22DF500001606F00016051F9
:10055800010DF35000010001AA25D96EF4500001E5
:100568000001AB21DA6EC9CFDFFF000120EE0BF0EE
:100578000001AA51D9260001AB51DA22DF2AC58829
:1005880027D0000120EE0DF00001AA51D926000164
:10059800AB51DA22000EDF6EC584C59619D018D08B
:1005A80017D0000120EE0DF00001AA51D926000154
:1005B800AB51DA22DF50000AD8B40AD0010AD8B405
:1005C800ECD6030AD8B47FD7010AD8B491D700D0A3
:1005D8001200000120EE35F000019451D9260001E7
:1005E8009551DA22DF50000100019D6F00010001E2
:1005F8009D510D0DF35000010001942500010001EB
:10060800A06FF4500001000195210001A16F010EB7
:10061800A0C0D9FFA1C0DAFFDF6201D001D075D038
:10062800000120EE01F00001A051D9260001A151DE
:10063800DA22DF5000010001966101D001D003D019
:10064800FD0E66D065D0000120EE01F00001A0513A
:10065800D9260001A151DA22DF5000019B6F000169
:100668009B51000100019E6F00019F6B99C08AF0A9
:100678009AC08BF0030E00010001A02500019B6FBA
:10068800000E00010001A12100019C6F9BC08CF0AD
:100698009CC08DF09EC08EF09FC08FF0000181EC51
:1006A80008F0000120EE35F000019451D926000130
:1006B8009551DA22000110EE35F000019451E1263F
:1006C80000019551E222E75000019B6F00019B2930
:1006D800030BDF6E000120EE02F00001A051D926C5
:1006E8000001A151DA2297C0E1FF98C0E2FFDFCFF5
:1006F800E7FFA0C0D9FFA1C0DAFF000EDF6E00013E
:1007080000019E5105D004D003D0FC0E01D000D0CA
:100718001200000100016CC071F000010001726B51
:10072800000120EE34F000016A51D92600016B5116
:10073800DA22DF5000010001736F000100017351DC
:100748000D0DF350000100016A2500010001746FCE
:10075800F450000100016B210001756F74C0D9FFCE
:1007680075C0DAFFDF50D8B401D001D003D0FF0E36
:1007780052D051D0000120EE01F000017451D92669
:1007880000017551DA2200016CC0DFFF000120EE84
:1007980002F000017451D92600017551DA220001D6
:1007A8006DC0DFFF030E0001000174250001000188
:1007B800606F000E0001000175210001616F6EC0BD
:1007C80062F06FC063F071C064F072C065F0000140
:1007D800ACEC08F0000120EE34F000016A51D92693
:1007E80000016B51DA22000110EE34F000016A5169
:1007F800E12600016B51E222E7500001706F000111
:100808007029030BDF6E74C0D9FF75C0DAFF010EC3
:10081800DF6E010E00D01200000155EC08F0000157
:1008280000018F5100018E11D8A401D001D002D04F
:1008380062D061D08A860001906F010E000100012C
:10084800AC6F0001905100D00101010E00010001C0
:100858008B6F01017C0E00018A6F0001CDEC09F05D
:100868000009D8B401D001D00BD00001906F000E60
:1008780000010001AC6F000190518A963CD03BD03A
:100888000101010E000100018B6F0101B20E000190
:100898008A6F0001CDEC09F00009D8B401D001D06D
:1008A8000BD00001906F000E00010001AC6F000139
:1008B80090518A9620D01FD00001906F0A0E000137
:1008C80000018A6F000190510001D5EC0AF08AA658
:1008D80001D002D0010E01D0000E0001906F00017E
:1008E8009047904790478A5000019019F70B90194C
:1008F8008A6EAAD7A9D71200000E000100018B6FDB
:100908000C0E00018A6F000151EC0AF000018AC048
:1009180090F000018BC091F090C0D9FF91C0DAFF30
:1009280000018FC0DFFF000120EE01F000019051AF
:10093800D92600019151DA223A0EDF6E000100013A
:10094800AD51070D010EF326000EF4220101000E31
:10095800F324D96E0101010EF420DA6E000190C073
:10096800DEFF000191C0DDFF00010001AD51070D60
:10097800030EF326000EF4220101000EF324D96EB3
:100988000101010EF420DA6E000EDE6E000EDD6E3F
:1009980000010001AD51070D050EF326000EF422EB
:1009A8000101000EF324D96E0101010EF420DA6E64
:1009B800000EDE6E000EDD6E00010001AD2B90C052
:1009C8008BF091C08CF000016EEC09F01200000E63
:1009D800000100018B6F0C0E00018A6F000151ECC1
:1009E8000AF000018AC08FF000018BC090F08FC020
:1009F800D9FF90C0DAFF00018EC0DFFF000120EEB2
:100A080001F000018F51D92600019051DA22200E01
:100A1800DF6E00010001AD51070D010EF326000E37
:100A2800F4220101000EF324D96E0101010EF42015
:100A3800DA6E00018FC0DEFF000190C0DDFF00010B
:100A48000001AD51070D030EF326000EF42201013B
:100A5800000EF324D96E0101010EF420DA6E000EA7
:100A6800DE6E000EDD6E00010001AD51070D050EB2
:100A7800F326000EF4220101000EF324D96E0101C1
:100A8800010EF420DA6E000EDE6E000EDD6E00013F
:100A98000001AD2B8FC08AF090C08BF0000115ECDF
:100AA8000BF012009EAA01D001D041D020EE08F030
:100AB8003350D9263450DA22DF501B6E1B50010DFB
:100AC800F3503324D96EF4503420DA6EE9EC09F08F
:100AD800DF6E20EE08F03350D9263450DA22DF2AB0
:100AE80020EE08F03350D9263450DA22080EDF629F
:100AF80001D001D01CD020EE08F03350D926345054
:100B0800DA22DF50176E1B6E1F0E186E1B5033C093
:100B180019F034C01AF0B9EC0AF020EE08F033509E
:100B2800D9263450DA22000EDF6E01D000D032A66A
:100B380001D001D011D0AB98AB881B6E000E176E98
:100B48001B501C6E1E0E186E1C50000E1A6E000EE6
:100B5800196EB9EC0AF000D01200000EAC6E000E4F
:100B6800AB6E000100018AA101D001D001D0AC8890
:100B7800000100018AA301D001D002D0AC8CAB8C5B
:100B8800000100018AA501D001D001D0AC8E00017E
:100B980000018AA701D001D002D0AB8801D0AB8A6E
:100BA800000100018AA901D001D001D0AC849E982F
:100BB800000100018AAB01D001D001D0AB86000151
:100BC80000018AAD01D001D002D09D8A01D09D9A42
:100BD8009E9A000100018AAF01D001D002D09D8801
:100BE80001D09D988BC0AFFF000100018C51B06E01
:100BF800AC8AAB8E949C948EACA801D001D006D060
:100C0800ACBE01D001D002D0948C00D012000DC02F
:100C180012F0136A20EE34F00B50D9260C50DA2269
:100C2800DF50146E14500D0DF3500B24156EF45054
:100C38000C20166E15C0D9FF16C0DAFFDF50D8B4E5
:100C480001D001D003D0FF0E3AD039D020EE01F008
:100C58001550D9261650DA220DC0DFFF20EE02F01B
:100C68001550D9261650DA220EC0DFFF030E1524C0
:100C7800016E000E1620026E0FC003F010C004F0C3
:100C880012C005F013C006F04AEC09F020EE34F06B
:100C98000B50D9260C50DA2210EE34F00B50E12616
:100CA8000C50E222E750116E1128030BDF6E15C0BD
:100CB800D9FF16C0DAFF010EDF6E010E00D0120058
:100CC800000120EE0DF00001AA51D9260001AB5118
:100CD800DA22DF50D8B401D001D002D03FD03ED0C4
:100CE800000120EE0BF00001AA51D9260001AB51FA
:100CF800DA22000EDF6E000120EE0AF00001AA5190
:100D0800D9260001AB51DA2200018CC0DFFFAAC04E
:100D1800D9FFABC0DAFF00018BC0DFFF000120EE76
:100D280001F00001AA51D9260001AB51DA220001D5
:100D38008AC0DFFFC5809E86000100018A5100013C
:100D48008A25C96E000120EE0DF00001AA51D926AE
:100D58000001AB51DA22020EDF6E00D01200000152
:100D68000001AC6701D001D002D045D044D00001C9
:100D780026EC08F000010001635100016211D8B4AB
:100D880001D001D002D037D036D00001DFEC0AF014
:100D980000010001615100016011D8A401D001D007
:100DA80002D029D028D00101010E00010001616F95
:100DB80001017C0E0001606F000105EC0AF00009DA
:100DC800D8B401D001D002D016D015D00101010E3F
:100DD80000010001616F0101B20E0001606F0001A6
:100DE80005EC0AF00009D8B401D001D002D003D034
:100DF80002D022EC0BF012000600EACF7FF0E1CF20
:100E080080F0E2CF81F0D9CF82F0DACF83F0F3CF50
:100E180084F0F4CF85F0F6CF86F0F7CF87F0F8CFDF
:100E280088F0F5CF89F09EA601D001D004D09E9617
:100E3800CDEC01F000D0F2A401D001D004D0F2949E
:100E4800C4EC07F000D09E5000D0B3EC06F089C087
:100E5800F5FF88C0F8FF87C0F7FF86C0F6FF85C09A
:100E6800F4FF84C0F3FF83C0DAFF82C0D9FF81C0DA
:100E7800E2FF80C0E1FF7FC0EAFF7EC0E9FF7DC0DE
:100E8800FBFF7CC0FAFF1100000120EE34F00001E6
:100E98008A51D92600018B51DA22000EDF6E00013B
:100EA80020EE35F000018A51D92600018B51DA2253
:100EB800000EDF6E00018C6F000E000100018D6FC7
:100EC80000018C51030E000100018D6501D001D095
:100ED80002D01CD01BD0000100018D510D0DF35024
:100EE800000100018A25D96EF450000100018B2110
:100EF800DA6E000EDF6E000100018D2B030E00017B
:100F080000018D6501D001D0E6D700D012000001A4
:100F18008E6F000E00010001AC6F00018E510101BF
:100F2800010E000100018B6F0101B20E00018A6FF2
:100F3800000148EC07F00101010E000100018B6F70
:100F480001017C0E00018A6F000148EC07F00101E5
:100F5800010E000100018B6F0101460E00018A6F2E
:100F6800000148EC07F00201020E000100018B6F3E
:100F78000201000E00018A6F000148EC07F0120020
:100F88008AA001D002D0010E01D0000E00017A6FB4
:100F98008A5000017A19FE0B7A198A6E00017A6F5D
:100FA800000E00010001766F00017A5100017B6F8D
:100FB8000A0E00010001776F00017B51000E00014D
:100FC8000001796F000E0001786F000167EC0AF0EC
:100FD800000E00010001616F000E0001606F00014A
:100FE80004EC0BF01200F2AC01D001D00AD0000ED4
:100FF800000100018D6F000E00018C6F22D021D0FE
:1010080020D00001CBEC0AF0000100018B51000157
:101018008A11D8B401D001D00AD0000E0001000115
:101028008D6F000E00018C6F0CD00BD00AD0000E13
:10103800000100018D6F010E00018C6F02D001D0FC
:1010480000D01200F2AC01D001D00AD0000E00018D
:101058000001636F000E0001626F22D021D020D002
:101068000001DFEC0AF0000100016151000160118C
:10107800D8B401D001D00AD0000E00010001636F7E
:10108800000E0001626F0CD00BD00AD0000E0001D8
:101098000001636F010E0001626F02D001D000D021
:1010A80012000001F7EC07F0000100018D5100016A
:1010B8008C11D8A401D001D016D00001CBEC0AF0D5
:1010C800000100018B5100018A11D8A401D001D080
:1010D8000AD0000E000100018F6F010E00018E6F13
:1010E8000BD00AD009D0000E000100018F6F000E4E
:1010F80000018E6F01D000D012008CC092F08DC01C
:1011080093F08AC090F08BC091F013D092C0D9FFB1
:1011180093C0DAFF90C0E1FF91C0E2FFDFCFE7FFA5
:1011280000010001924B932B00010001904B912B81
:1011380000D0000100018E07D8A08F0700018E297A
:10114800D8B48F29D8A401D001D0E0D700D012009C
:1011580062C068F063C069F060C066F061C067F0A3
:1011680013D068C0D9FF69C0DAFF66C0E1FF67C065
:10117800E2FFDFCFE7FF00010001684B692B0001A8
:101188000001664B672B00D0000100016407D8A05E
:10119800650700016429D8B46529D8A401D001D015
:1011A800E0D700D012008AA201D002D0010E01D0EF
:1011B800000E1B6E1B468A501B18FD0B1B188A6EEF
:1011C800F2EC0AF001C01DF002C01EF01B6E000E0A
:1011D800176E1B501C6E0B0E186E1C50000E1A6EEC
:1011E800000E196EB9EC0AF0000E026E000E016EC8
:1011F800FBEC0AF01200000100018C511E0A8D114F
:10120800D8A401D001D002D01CD01BD0000100010D
:101218008C511F0A8D11D8A401D001D012D0000121
:1012280000018E51000100019025D96E00010001D6
:101238008F51000100019121DA6E000EDF6E01D09E
:1012480000D0120002EE00F0360EEE6AE806FDE16C
:1012580001EE00F0E80EEE6AE806FDE100EEAAF005
:101268000E0EEE6AE806FDE1326A316A306A4A0E0D
:10127800F66E160EF76E000EF86E0900F5CFB8F090
:101288000900F5CFB9F0000163EF00F003C009F0E1
:1012980004C00AF001C007F002C008F00FD009C06E
:1012A800D9FF0AC0DAFF07C0E1FF08C0E2FFDFCFBD
:1012B800E7FF094A0A2A074A082A00D00506D8A0E3
:1012C80006060528D8B40628D8A401D001D0E7D747
:1012D80000D012008BC08DF08CC08EF0000120EE83
:1012E80002F000018D51D92600018E51DA220E0E2E
:1012F800DF6E000120EE02F000018D51D9260001B9
:101308008E51DA22DF50000100018A6F00011FECC4
:101318000BF01200F28C8DC033F08EC034F020EE4A
:1013280008F03350D9263450DA22000EDF6E00015F
:101338008F6F6C0E000100018A6F00018F51000E43
:10134800000100018C6F190E00018B6F0001B1ECD8
:1013580005F01200000100018A517E0BCD6E0001DC
:1013680000018AAD01D001D002D0CD8E02D0CD9E31
:1013780000D0000ECF6E000ECE6E9E9000010001D0
:101388008AAF01D001D002D09D8001D09D90CD8040
:101398001200000120EE35F000018A51D926000123
:1013A8008B51DA22DF5000018C6F00018C510D0D3A
:1013B800F350000100018A25D96EF45000010001A4
:1013C8008B21DA6EDF5000D01200F20E3216ABAC71
:1013D80001D001D007D03290ABA001D001D002D00B
:1013E800328000D0ABA401D001D001D03284ABA2AE
:1013F80001D001D001D03286AECF01F0015000D02B
:101408001200000120EE35F000016051D9260001DC
:101418006151DA22DF500001626F000162510D0D47
:10142800F350000100016025D96EF450000100015D
:101438006121DA6EDF5000D012000101010E0001B7
:101448000001956F01017C0E0001946FA2C096F017
:10145800A3C097F0A4C098F0A5C099F0A6C09AF0D0
:101468000001EDEC02F000D012000101010E0001B4
:101478000001956F0101B20E0001946FA2C096F0B1
:10148800A3C097F0A4C098F0A5C099F0A6C09AF0A0
:101498000001EDEC02F000D01200B8C08CF0B9C029
:1014A8008DF0000100018A5100010001B8270001F8
:1014B80000018B5100010001B9238CC08AF08DC056
:1014C8008BF000D012000101010E000100016B6FCA
:1014D80001017C0E00016A6F76C06CF077C06DF078
:1014E80078C06EF079C06FF000018DEC03F000D089
:1014F8001200000100018A517F0BD56E000ED76ED5
:10150800000ED66EF294000100018AAF01D001D01E
:1015180002D0F28A01D0F29AD58E120089A201D0A7
:1015280002D0010E01D0000E00018A6F00018A4727
:10153800895000018A19FD0B8A19896ED08EF28EA6
:10154800F28C120094869488C78E280EC66E280ED8
:10155800C86E000120EE0DF00001AA51D926000145
:10156800AB51DA22000EDF6E12000101010E0C6E83
:101578000101B20E0B6E17C00DF018C00EF019C0A5
:101588000FF01AC010F00BEC06F000D01200000E9D
:10159800F2AE010E000100018A6F00018B6B00D0D2
:1015A8001200FA0E00F0E82EFDD7000100018A2F84
:1015B800F8D700D01200000EF2AE010E00010001B3
:1015C800606F0001616B00D012008AC0D9FF8BC028
:1015D800DAFF000EDE6E000EDD6E1200CECF03F0D5
:1015E800CFCF04F003C001F004C002F0120001C024
:1015F80003F002C004F004C0CFFF03C0CEFF120006
:1016080060C062F061C063F063C0D7FF62C0D6FFFC
:1016180012008AC0D9FF8BC0DAFFDE2A000EDD2255
:1016280012008AC08CF08BC08DF0120090C092F02E
:1016380091C093F012008AC089FF1200D38E030074
:041648001200AE00DE
:020000040020DA
:08000000FFFFFFFFFFFFFFFF00
:020000040030CA
:0E000000FF08191EFF8080FF0FC00FE00F40A9
:00000001FF
