:0400000061EF00F0BC
:10000800FACFBCF0FBCFBDF0E9CFBEF0F9EF08F0B6
:10001800D8CF1FF0E8CF20F0E0CF21F0FACF22F0C0
:10002800FBCF23F0E9CF24F0EACF25F0E1CF26F08B
:10003800E2CF27F0D9CF28F0DACF29F0F3CF2AF092
:10004800F4CF2BF0F6CF2CF0F7CF2DF0F8CF2EF021
:10005800F5CF2FF09EA001D001D004D09E90AAEC3D
:100068000BF000D09EAA01D001D004D09E9A00ECDB
:1000780007F000D02FC0F5FF2EC0F8FF2DC0F7FF06
:100088002CC0F6FF2BC0F4FF2AC0F3FF29C0DAFF0B
:1000980028C0D9FF27C0E2FF26C0E1FF25C0EAFF3C
:1000A80024C0E9FF23C0FBFF22C0FAFF21C0E0FF04
:1000B80020C0E8FF1FC0D8FF10009AEF0AF0000127
:1000C800B16F000E00010001BB6F0001B1510001CA
:1000D800B16F000E00010001B66F0001B1510001BF
:1000E800B16F000E00010001BA6F0001B1510001AB
:1000F800B16F000E00010001B96F0001B15100019C
:10010800B16F000E00010001B76F0001B151C6AC1C
:1001180001D001D021D0C69C20EE0CF03050D92659
:100128003150DA22050EDF6E0001B16F010E0001B9
:100138000001B76F0001B15120EE0EF03050D92602
:100148003150DA22DF2A20EE0DF03050D926315016
:10015800DA22040EDF6E00D0C7A001D001D00BD088
:10016800C9CFB8F00001B16F010E00010001BB6FEB
:100178000001B15100D000010001B76701D001D0E2
:10018800E8D1D3D1D2D1C7A601D001D0E2D1BBC02A
:1001980097F000010BEC08F020EE0CF03050D92657
:1001A8003150DA22080EDF6201D001D0D2D100012D
:1001B800B16F000E00010001BB6F0001B1510001D9
:1001C800B16F010E00010001B96F0001B151C1D139
:1001D800C0D1BFD1C7A801D001D034D020EE0BF0D8
:1001E8003050D9263150DA22DF2A00010001BB51F4
:1001F800D8B401D001D01DD0C7BA01D001D009D0E0
:100208000001B16F010E00010001BA6F0001B15188
:1002180010D020EE0EF03050D9263150DA22DF2AE5
:1002280020EE0DF03050D9263150DA22060EDF6E5E
:1002380000D020EE0CF03050D9263150DA22050ECD
:10024800DF6E87D100010001BB51D8B401D001D0C5
:1002580080D120EE0BF03050D9263150DA22DF2A37
:10026800C7BA01D001D027D0C7B401D001D009D076
:1002780020EE0CF03050D9263150DA22070EDF6E0E
:1002880068D120EE0CF03050D9263150DA22080E11
:10029800DF6E0001B16F010E00010001B96F0001AE
:1002A800B1510001B16F000E00010001BB6F0001E8
:1002B800B1514FD14ED120EE0EF03050D9263150E9
:1002C800DA22DF2A20EE0CF03050D9263150DA221B
:1002D800050EDF6E20EE0DF03050D9263150DA22AF
:1002E800060EDF6E36D135D134D133D120EE1AF077
:1002F8003050D9263150DA22DF500001B16F20EE9C
:1003080019F03050D9263150DA22DF500001B15DA2
:10031800D8B001D001D028D020EE1AF03050D9261C
:100328003150DA22DF500001B16F0001B151010DE7
:100338000F0EF326000EF422F3503024D96EF45039
:100348003120DA6EDF50C96E20EE1AF03050D9260F
:100358003150DA22DF2A0001B16F010E00010001DD
:10036800B66F0001B151F5D020EE0CF03050D9260F
:100378003150DA22050EDF6EECD0EBD0C7A801D0E1
:1003880001D062D020EE0BF03050D9263150DA225D
:10039800DF2A00010001BB51D8B401D001D042D0FE
:1003A800C7AA01D001D025D020EE0AF03050D926B6
:1003B8003150DA22DF500001B16F0001B151010D57
:1003C800F3503024D96EF4503120DA6E0001B8C0F1
:1003D800DFFF20EE0AF03050D9263150DA22DF2A2A
:1003E8000001B16F010E00010001BA6F0001B151A7
:1003F80022D020EE0EF03050D9263150DA22DF2AF2
:1004080020EE0DF03050D9263150DA22060EDF6E7C
:1004180020EE0CF03050D9263150DA22050EDF6E6E
:100428000AD009D00001B16F010E00010001BA6FB6
:100438000001B15100D020EE0CF03050D9263150D7
:10044800DA22050EDF6E85D000010001BB51D8B459
:1004580001D001D07ED020EE0BF03050D92631509B
:10046800DA22DF2AC7AA01D001D01DD020EE0AF077
:100478003050D9263150DA22DF500001B16F000127
:10048800B151010DF3503024D96EF4503120DA6E99
:100498000001B8C0DFFF20EE0AF03050D9263150F5
:1004A800DA22DF2A56D0C7A401D001D021D020EE0D
:1004B8000CF03050D9263150DA22080EDF6E0001D8
:1004C800B16F010E00010001BA6F0001B1510001C6
:1004D800B16F010E00010001B96F0001B1510001B7
:1004E800B16F000E00010001BB6F0001B15131D0A6
:1004F80020EE0EF03050D9263150DA22DF2A20EED5
:100508000DF03050D9263150DA22060EDF6E20EE7B
:100518000CF03050D9263150DA22050EDF6E19D092
:1005280018D017D016D015D014D020EE0CF03050BB
:10053800D9263150DA22DF50050AD8B424D6030A66
:10054800D8B448D6010AD8B419D70F0AD8B4CED629
:1005580000D000010001BB6701D001D007D0000125
:100568000001B651D8B401D001D007D0C6B801D027
:1005780001D003D0C68801D000D020EE0AF0305058
:10058800D9263150DA22080EDF6401D001D01ED0FE
:1005980000010001BA6701D001D018D020EE0CF09C
:1005A8003050D9263150DA22050EDF6E20EE0EF0DB
:1005B8003050D9263150DA22DF2A20EE0DF03050A3
:1005C800D9263150DA22070EDF6E00D00001000173
:1005D800BA51D8B401D001D040D020EE0BF0305041
:1005E800D9263150DA2210EE0AF03050E126315087
:1005F800E222E7500001B16F0001B151010DF35043
:100608003024E16EF4503120E26EDFCFE7FF20EEB8
:100618000AF03050D9263150DA22DF500001B16F8C
:100628000001B12900010001AD6F0001B26F280E71
:1006380000010001AE6F0001B25130C0AFF031C00F
:10064800B0F0000125EC0CF020EE0AF03050D9266D
:100658003150DA22000EDF6E4FD020EE0EF030500F
:10066800D9263150DA22DF50D8B401D001D044D095
:1006780020EE0EF03050D9263150DA22DF5000013A
:100688000001B36F20EE0DF03050D9263150DA2238
:10069800DF5000010001B46F20EE0BF03050D92676
:1006A8003150DA22DF5000010001B56F0001B16F4F
:1006B800030E00010001AD6F0001B1510001B26FDE
:1006C800290E00010001AE6F0001B2510001000EB9
:1006D80000010001B06F0001B30E0001AF6F00010F
:1006E80025EC0CF020EE0EF03050D9263150DA22ED
:1006F800000EDF6E01D000D000010001B951D8B45E
:1007080001D001D020D00001B16F000E000100011E
:10071800AD6F0001B1510001B26F2A0E0001000156
:10072800AE6F0001B25130C0AFF031C0B0F000017F
:1007380025EC0CF00001B16F000E00010001B96F4B
:100748000001B15100D01200E00ED36E9B8C010164
:10075800010E00010001CB6F0101E70E0001CA6F15
:100768000001A7EC0CF00AEC0DF00101010E0001EC
:100778000001CB6F0101E50E0001CA6F0001DDEC3D
:100788000CF081EC09F0000E936E000E8A6E0101E8
:10079800CE6F960E00010001CA6F0101CE51000113
:1007A80050EC0CF00101CE6F930E00010001CA6FEE
:1007B8000101CE510101CF6F000E00010001CB6F86
:1007C8000101CF51000133EC0BF09F909F9A9F8657
:1007D8009D860101CE6F6C0E00010001CA6F0101F8
:1007E800CE51000E00010001CC6F190E0001CB6F35
:1007F8000001ADEC08F02FEC0DF00AEC0DF0010152
:10080800CE6F500E01010101B36F0101CE510101FC
:10081800CF6F300E01010101B46F0101CF51010109
:10082800D06F220E01010101B56F0101D051010104
:10083800C5EC0BF0000E01010101B46F010E0101BE
:10084800B36F0101010E01010101B66F0101D10E63
:100858000101B56F0101CE6F500E01010101B76FA3
:100868000101CE510101CF6F300E01010101B86FB6
:100878000101CF510101B4EC07F000D0A5EC06F05E
:100888000101CE6F0A0E01010101C96F0101CE51AC
:100898000101010E01010101CB6F0101EE0E010101
:1008A800CA6F0101010E01010101CD6F0101D60ED0
:1008B8000101CC6F0101DFEC0BF001010101ED6FCB
:1008C80001010101EDAF01D001D032D042D041D0B9
:1008D80040D02ED00101010E01010101B46F0101C8
:1008E800E30E0101B36F01010101EEC1B5F1010190
:1008F8000101B66B01010101ED5101010101B76F61
:100908000101B86B0101B7BFB8070101010E010170
:100918000101BA6F0101D60E0101B96F01012AEC7C
:100928000DF017D0D6C1D5F114D013D012D011D0F4
:1009380001010101EE510A0AD8B4CCD7220AD8B471
:10094800F1D7010AD8B4EED7030AD8B402D001D03F
:1009580000D00101CE6F0A0E01010101C96F01012A
:10096800CE510101010E01010101CB6F0101EE0E13
:100978000101CA6F0101010E01010101CD6F0101E1
:10098800D60E0101CC6F0101F7EC0BF0010101015A
:10099800ED6F01010101EDAF01D001D0A0D06ED7FC
:1009A8006DD76CD79CD00101CE6F000E01010101FB
:1009B800EC6F0101CE5136D001010101EC51070D58
:1009C800010EF326000EF4220101000EF324D96E65
:1009D8000101010EF420DA6E0001DECFCAF0000139
:1009E800DDCFCBF001010101EC51070D050EF32617
:1009F800000EF4220101000EF324D96E0101010E4C
:100A0800F420DA6E01D80AD00500FA6EDE50FD6EC9
:100A1800DE50FE6EF850FF6EFA501200010101011F
:100A2800EC2B00D001010101465101010101EC5DEF
:100A3800D8A001D001D0C0D700D00101010E01011A
:100A48000101B46F0101E50E0101B36F010101015C
:100A5800EEC1B5F101010101B66B01010101ED51D2
:100A680001010101B76F0101B86B0101B7BFB807F8
:100A78000101010E01010101BA6F0101D60E010148
:100A8800B96F010112EC0DF0F9D60101010E010157
:100A98000101B46F0101E10E0101B36F0101010110
:100AA800EEC1B5F101010101B66B01010101ED5182
:100AB80001010101B76F0101B86B0101B7BFB807A8
:100AC8000101010E01010101BA6F0101D60E0101F8
:100AD800B96F0101C3EC0AF0D1D6D0D6CFD6010147
:100AE8000101EE510B0AD8B45ED7140AD8B4CDD799
:100AF800C5D6C4D6C3D6C2D661EF00F0010120EE38
:100B080035F00101BD51D9260101BE51DA22DF506D
:100B180001010101C46F01010101C4510D0DF35020
:100B280001010101BD2501010101C76FF450010157
:100B38000101BE210101C86F010EC7C1D9FFC8C19B
:100B4800DAFFDF6201D001D075D0010120EE01F09B
:100B58000101C751D9260101C851DA22DF5001012C
:100B68000101BF6101D001D003D0FD0E66D065D070
:100B7800010120EE01F00101C751D9260101C85138
:100B8800DA22DF500001CA6F0001CA5101010101D8
:100B9800C56F0101C66BC2C1B3F1C3C1B4F1030E85
:100BA80001010101C7250001CA6F000E0101010101
:100BB800C8210001CB6FCAC0B5F1CBC0B6F1C5C121
:100BC800B7F1C6C1B8F1010144EC0AF0010120EE09
:100BD80035F00101BD51D9260101BE51DA220101CA
:100BE80010EE35F00101BD51E1260101BE51E222AE
:100BF800E7500001CA6F0001CA29030BDF6E01012B
:100C080020EE02F00101C751D9260101C851DA22AC
:100C1800C0C1E1FFC1C1E2FFDFCFE7FFC7C1D9FF14
:100C2800C8C1DAFF000EDF6E01010101C55105D010
:100C380004D003D0FC0E01D000D012000001000146
:100C4800A3C0A8F000010001A96B000120EE34F058
:100C58000001A151D9260001A251DA22DF5000017A
:100C68000001AA6F00010001AA510D0DF350000107
:100C78000001A12500010001AB6FF4500001000143
:100C8800A2210001AC6FABC0D9FFACC0DAFFDF50C6
:100C9800D8B401D001D003D0FF0E52D051D00001FA
:100CA80020EE01F00001AB51D9260001AC51DA2247
:100CB8000001A3C0DFFF000120EE02F00001AB51EC
:100CC800D9260001AC51DA220001A4C0DFFF030ECF
:100CD80000010001AB2500010001976F000E000123
:100CE8000001AC210001986FA5C099F0A6C09AF048
:100CF800A8C09BF0A9C09CF000016FEC0AF00001AD
:100D080020EE34F00001A151D9260001A251DA22C7
:100D1800000110EE34F00001A151E1260001A251BA
:100D2800E222E7500001A76F0001A729030BDF6E3D
:100D3800ABC0D9FFACC0DAFF010EDF6E010E00D0E8
:100D48001200010118EC0AF001010101B65101017C
:100D5800B511D8A401D001D002D04DD04CD001019A
:100D6800B76F010E00010001606F0101B75100D09B
:100D78000101010E00010001CB6F01017D0E000190
:100D8800CA6F000156EC0BF00009D8B401D001D0AD
:100D98000AD00101B76F000E00010001606F010168
:100DA800B75129D028D00001000E00010001CB6FF7
:100DB8000001610E0001CA6F000156EC0BF000093A
:100DC800D8B401D001D00AD00101B76F000E0001DC
:100DD8000001606F0101B7510ED00DD00101B76F4E
:100DE8000A0E00010001CA6F0101B7510001C9ECE8
:100DF8000CF0BED7BDD712009EAA01D001D041D0B9
:100E080020EE04F03D50D9263E50DA22DF501B6E0A
:100E18001B50010DF3503D24D96EF4503E20DA6E7C
:100E280072EC0BF0DF6E20EE04F03D50D9263E50F8
:100E3800DA22DF2A20EE04F03D50D9263E50DA228D
:100E4800040EDF6201D001D01CD020EE04F03D502A
:100E5800D9263E50DA22DF50176E1B6E1F0E186E11
:100E68001B503DC019F03EC01AF078EC0CF020EE93
:100E780004F03D50D9263E50DA22000EDF6E01D034
:100E880000D032A601D001D011D0AC98AC881B6E2E
:100E9800000E176E1B501C6E1E0E186E1C50000E96
:100EA8001A6E000E196E78EC0CF000D012000DC00E
:100EB80012F0136A20EE34F00B50D9260C50DA22C7
:100EC800DF50146E14500D0DF3500B24156EF450B2
:100ED8000C20166E15C0D9FF16C0DAFFDF50D8B443
:100EE80001D001D003D0FF0E3AD039D020EE01F066
:100EF8001550D9261650DA220DC0DFFF20EE02F079
:100F08001550D9261650DA220EC0DFFF030E15241D
:100F1800016E000E1620026E0FC003F010C004F020
:100F280012C005F013C006F00FEC0BF020EE34F001
:100F38000B50D9260C50DA2210EE34F00B50E12673
:100F48000C50E222E750116E1128030BDF6E15C01A
:100F5800D9FF16C0DAFF010EDF6E010E00D01200B5
:100F68001AEC0DF001010101B7510101B72500018B
:100F78000001CA6F0001B4EC0CF0B8C1CAF000015E
:100F8800B4EC0CF0000E01010101BA6F000E010172
:100F9800B96F22D01AEC0DF0D88001010101B735E4
:100FA80000010001CA6F0001B4EC0CF0010101015D
:100FB800B95101010101B525D96E01010101BA51EB
:100FC80001010101B621DA6E8AEC0CF0DF6E010135
:100FD8000101B94BBA2B00D001010101BA51800AB5
:100FE8000001CB6F0101B35101010101B95D01019C
:100FF8000101B451800A0001CB59D8A001D001D019
:10100800C9D700D0E6EC0CF022EC0DF0120020EE6F
:101018000BF03050D9263150DA22010EDF6E20EE67
:101028000AF03050D9263150DA22000EDF6E000166
:1010380000019751D8B401D001D034D0C7AA01D04B
:1010480001D018D020EE0CF03050D9263150DA22D9
:10105800050EDF6E20EE0EF03050D9263150DA2220
:10106800DF2A20EE0DF03050D9263150DA22050E55
:10107800DF6E21D0C7A401D001D009D020EE0CF03A
:101088003050D9263150DA22080EDF6E14D020EE07
:101098000CF03050D9263150DA22070EDF6E0BD013
:1010A8000AD009D020EE0CF03050D9263150DA227F
:1010B800060EDF6E00D0120000010001606701D04B
:1010C80001D002D045D044D00001E9EC09F000017C
:1010D80000019A5100019911D8B401D001D002D071
:1010E80037D036D00001D3EC0CF000010001985144
:1010F80000019711D8A401D001D002D029D028D05E
:101108000101010E00010001986F01017D0E00012F
:10111800976F00018EEC0BF00009D8B401D001D014
:1011280002D016D015D00001000E00010001986F02
:101138000001610E0001976F00018EEC0BF00009B1
:10114800D8B401D001D002D003D002D033EC0DF0D6
:101158001200000EAD6E000EAC6E00010001CAA1B7
:1011680001D001D001D0AD8800010001CAA301D08F
:1011780001D002D0AD8CAC8C00010001CAA501D011
:1011880001D001D0AD8E00010001CAA701D001D065
:1011980002D0AC8801D0AC8A00010001CAA901D0F4
:1011A80001D001D0AD8400010001CAAB01D001D04B
:1011B80001D0AC8600010001CAAD01D001D002D037
:1011C8009D8A01D09D9A00010001CAAF01D001D0CB
:1011D80002D09D8801D09D98CBC0B0FF00010001CE
:1011E800CC517F6EAD8AAC8E1200EACFBFF0E1CF52
:1011F800C0F0E2CFC1F0D9CFC2F0DACFC3F0F3CF5D
:10120800C4F0F4CFC5F0F6CFC6F0F7CFC7F0F8CFEB
:10121800C8F0F5CFC9F09EA601D001D004D09E96A3
:1012280063EC00F000D0F2A401D001D004D0F29415
:10123800EAEC0AF000D060EC08F0C9C0F5FFC8C0BD
:10124800F8FFC7C0F7FFC6C0F6FFC5C0F4FFC4C0AB
:10125800F3FFC3C0DAFFC2C0D9FFC1C0E2FFC0C0FC
:10126800E1FFBFC0EAFFBEC0E9FFBDC0FBFFBCC0D5
:10127800FAFF1100000120EE34F00001CA51D9260E
:101288000001CB51DA22000EDF6E000120EE35F0AE
:101298000001CA51D9260001CB51DA22000EDF6EB7
:1012A8000001CC6F000E01010101B36F0001CC51A8
:1012B800030E01010101B36501D001D002D01CD099
:1012C8001BD001010101B3510D0DF35000010001C4
:1012D800CA25D96EF45000010001CB21DA6E000E48
:1012E800DF6E01010101B32B030E01010101B3659A
:1012F80001D001D0E6D700D012000101B46F000E72
:1013080000010001606F0101B4510001000E0001ED
:101318000001CB6F0001610E0001CA6F00013EECB5
:1013280009F00101010E00010001CB6F01017D0EE2
:101338000001CA6F00013EEC09F00101010E000135
:101348000001CB6F0101470E0001CA6F00013EEC9E
:1013580009F00201020E00010001CB6F0201000E2C
:101368000001CA6F00013EEC09F01200F2AC01D096
:1013780001D00AD0000E01010101B46F000E010175
:10138800B36F22D021D020D00001BFEC0CF00001B7
:101398000001CB510001CA11D8B401D001D00AD044
:1013A800000E01010101B46F000E0101B36F0CD0F2
:1013B8000BD00AD0000E01010101B46F010E01012A
:1013C800B36F02D001D000D01200F2AC01D001D02E
:1013D8000AD0000E000100019A6F000E0001996FFB
:1013E80022D021D020D00001D3EC0CF00001000164
:1013F800985100019711D8B401D001D00AD0000E3D
:10140800000100019A6F000E0001996F0CD00BD0FB
:101418000AD0000E000100019A6F010E0001996FB9
:1014280002D001D000D012000101BAEC09F001018C
:101438000101B4510101B311D8A401D001D016D0D3
:101448000001BFEC0CF000010001CB510001CA11F2
:10145800D8A401D001D00AD0000E01010101B66F55
:10146800010E0101B56F0BD00AD009D0000E0101A1
:101478000101B66F000E0101B56F01D000D0120056
:10148800B5C1BBF1B6C1BCF1B3C1B9F1B4C1BAF1D0
:1014980013D0BBC1D9FFBCC1DAFFB9C1E1FFBAC1E2
:1014A800E2FFDFCFE7FF01010101BB4BBC2B0101CC
:1014B8000101B94BBA2B00D001010101B707D8A02F
:1014C800B8070101B729D8B4B829D8A401D001D0E8
:1014D800E0D700D0120099C09FF09AC0A0F097C042
:1014E8009DF098C09EF013D09FC0D9FFA0C0DAFF2E
:1014F8009DC0E1FF9EC0E2FFDFCFE7FF00010001D2
:101508009F4BA02B000100019D4B9E2B00D000019A
:1015180000019B07D8A09C0700019B29D8B49C29EF
:10152800D8A401D001D0E0D700D0120002EE00F01C
:10153800360EEE6AE806FDE101EE00F0B30EEE6A43
:10154800E806FDE100EE60F0370EEE6AE806FDE120
:1015580000EE30F00D0EEE6AE806FDE16C0EF66E58
:101568001A0EF76E000EF86E0900F5CF3FF009006D
:10157800F5CF40F0000EF86E0001A8EF03F001016E
:101588000101B5511E0AB611D8A401D001D002D06C
:101598001CD01BD001010101B5511F0AB611D8A4F6
:1015A80001D001D012D001010101B751010101019F
:1015B800B925D96E01010101B85101010101BA2112
:1015C800DA6E000EDF6E01D000D012000001B16F9C
:1015D800000E00010001AD6F0001B1510001B26FB2
:1015E8000A0E00010001AE6F0001B251000E0001A9
:1015F8000001B06F000E0001AF6F000125EC0CF088
:10160800000E00010001986F000E0001976F0001A5
:1016180001EC0DF0120003C009F004C00AF001C08B
:1016280007F002C008F00FD009C0D9FF0AC0DAFFDE
:1016380007C0E1FF08C0E2FFDFCFE7FF094A0A2A37
:10164800074A082A00D00506D8A006060528D8B4F7
:101658000628D8A401D001D0E7D700D01200000195
:101668000001CB51F30B9A6ECAC0CCF07F0E00017B
:10167800CC170001D890CC35CD6E000ECF6E000E81
:10168800CE6E9E9000010001CAAF01D001D002D0F9
:101698009D8001D09D909AAE01D001D001D09A864C
:1016A800CD801200000120EE35F00001CA51D92684
:1016B8000001CB51DA22DF500001CC6F0001CC5180
:1016C8000D0DF35000010001CA25D96EF450000138
:1016D8000001CB21DA6EDF5000D01200F20E321674
:1016E800ACAC01D001D007D03290ACA001D001D071
:1016F80002D0328000D0ACA401D001D001D0328415
:10170800ACA201D001D001D03286AFCF01F0015098
:1017180000D01200000120EE35F000019751D926C3
:1017280000019851DA22DF500001996F00019951A8
:101738000D0DF350000100019725D96EF4500001FA
:1017480000019821DA6EDF5000D01200EFEC0CF0A7
:1017580001C01DF002C01EF01B6E000E176E1B505C
:101768001C6E0B0E186E1C50000E1A6E000E196EB1
:1017780078EC0CF0000E026E000E016EF8EC0CF026
:1017880012001AEC0DF001010101B3510101B3255A
:1017980000010001CA6F0001B4EC0CF0B4C1CAF03A
:1017A8000001B4EC0CF0B5C1CAF00001B4EC0CF0C7
:1017B80022EC0DF012000101010E01010101BE6FC2
:1017C80001017D0E0101BD6FC9C1BFF1CAC1C0F1E0
:1017D800CBC1C1F1CCC1C2F1CDC1C3F1010182ECD1
:1017E80005F000D012000001000E01010101BE6FDA
:1017F8000001610E0101BD6FC9C1BFF1CAC1C0F1CD
:10180800CBC1C1F1CCC1C2F1CDC1C3F1010182ECA0
:1018180005F000D01200CAC0B3F1CBC0B4F189A45E
:1018280001D002D0010E01D0000E0001CC6F0001E2
:10183800CC47CC4789500001CC19FB0BCC19896ED9
:1018480012000101010E00010001A26F01017D0ECD
:101858000001A16FADC0A3F0AEC0A4F0AFC0A5F069
:10186800B0C0A6F0000122EC06F000D01200CAC0F9
:10187800B3F1CBC0B4F189A201D002D0010E01D0DE
:10188800000E0001CC6F0001CC4789500001CC1933
:10189800FD0BCC19896E120000010001CA517F0BA3
:1018A800D56E000ED76E000ED66EF29400010001C0
:1018B800CAAF01D001D002D0F28A01D0F29AD58EF7
:1018C8001200CAC0B3F1CBC0B4F189A001D002D0D4
:1018D800010E01D0000E0001CC6F89500001CC1917
:1018E800FE0BCC19896E12000001000E0C6E00016F
:1018F800610E0B6E17C00DF018C00EF019C00FF076
:101908001AC010F05BEC07F000D01200C58600D0BA
:10191800C7A001D001D0FCD7C9CFCAF099EC0CF010
:1019280000010001CA5100D0120001D000D0C550FA
:101938001F0BD8A401D001D0FAD7C7B401D001D069
:10194800F6D700D01200CAC03DF0CBC03EF020EE62
:1019580004F03D50D9263E50DA22000EDF6E120008
:10196800CAC0C9FF00D0C7B001D001D0FCD700D091
:1019780099EC0CF01200000EF2AE010E000100010D
:10198800CA6F0001CB6B00D01200FA0E00F0E82EEF
:10199800FDD700010001CA2FF8D700D01200000EB1
:1019A800F2AE010E00010001976F0001986B00D0A4
:1019B8001200CAC0D9FFCBC0DAFF000EDE6E000EDF
:1019C800DD6E1200C58AC58800D0C5B801D001D027
:1019D800FCD700D01200CECF03F0CFCF04F003C065
:1019E80001F004C002F0120001C003F002C004F0CC
:1019F80004C0CFFF03C0CEFF120097C099F098C073
:101A08009AF09AC0D7FF99C0D6FF1200948694889E
:101A1800C78E280EC66E280EC86E1200B3C1D9FF35
:101A2800B4C1DAFFDE2A000EDD221200C58000D024
:101A3800C5B001D001D0FCD700D01200C58400D0B9
:101A4800C5B401D001D0FCD700D01200B9C1CAF08A
:101A5800BAC1CBF01200D08EF28EF28C1200D38E67
:061A680003001200330030
:08FFF8008AF795FFF2F9FFF111
:00000001FF
