:0400000061EF00F0BC
:10000800FACFC9F0FBCFCAF0E9CFCBF071EF0AF015
:10001800D8CF1FF0E8CF20F0E0CF21F0FACF22F0C0
:10002800FBCF23F0E9CF24F0EACF25F0E1CF26F08B
:10003800E2CF27F0D9CF28F0DACF29F0F3CF2AF092
:10004800F4CF2BF0F6CF2CF0F7CF2DF0F8CF2EF021
:10005800F5CF2FF09EA001D001D004D09E906DEC7A
:100068000DF000D09EAA01D001D004D09E9AD7EC02
:1000780008F000D02FC0F5FF2EC0F8FF2DC0F7FF05
:100088002CC0F6FF2BC0F4FF2AC0F3FF29C0DAFF0B
:1000980028C0D9FF27C0E2FF26C0E1FF25C0EAFF3C
:1000A80024C0E9FF23C0FBFF22C0FAFF21C0E0FF04
:1000B80020C0E8FF1FC0D8FF10008EEF0CF0000131
:1000C800BE6F000E00010001C86F0001BE510001A3
:1000D800BE6F000E00010001C36F0001BE51000198
:1000E800BE6F000E00010001C76F0001BE51000184
:1000F800BE6F000E00010001C66F0001BE51000175
:10010800BE6F000E00010001C46F0001BE51C6ACF5
:1001180001D001D02AD0C69C000120EE0CF00001CD
:100128006051D92600016151DA22050EDF6E000107
:10013800BE6F010E00010001C46F0001BE51000135
:1001480020EE0EF000016051D92600016151DA223B
:10015800DF2A000120EE0DF000016051D9260001D0
:100168006151DA22040EDF6E00D0C7A001D001D0A1
:100178000BD0C9CFC5F00001BE6F010E0001000110
:10018800C86F0001BE5100D000010001C46701D052
:1001980001D051D239D238D2C7A601D001D04BD222
:1001A800C8C0A4F00001A4EC07F0000120EE0CF098
:1001B80000016051D92600016151DA22080EDF6280
:1001C80001D001D038D20001BE6F000E000100013D
:1001D800C86F0001BE510001BE6F010E0001000191
:1001E800C66F0001BE5127D226D225D2C7A801D09A
:1001F80001D040D0000120EE0BF000016051D9265B
:1002080000016151DA22DF2A00010001C851D8B487
:1002180001D001D023D0C7BA01D001D009D0000144
:10022800BE6F010E00010001C76F0001BE5116D05C
:10023800000120EE0EF000016051D9260001615145
:10024800DA22DF2A000120EE0DF000016051D926E4
:1002580000016151DA22060EDF6E00D0000120EEA7
:100268000CF000016051D92600016151DA22050E17
:10027800DF6EE1D100010001C851D8B401D001D02E
:10028800DAD1000120EE0BF000016051D9260001FF
:100298006151DA22DF2AC7BA01D001D02DD0C7B404
:1002A80001D001D00CD0000120EE0CF0000160510B
:1002B800D92600016151DA22070EDF6EBCD1000198
:1002C80020EE0CF000016051D92600016151DA22BC
:1002D800080EDF6E0001BE6F010E00010001C66F3F
:1002E8000001BE510001BE6F000E00010001C86F81
:1002F8000001BE51A0D19FD1000120EE0EF00001F7
:100308006051D92600016151DA22DF2A000120EE6E
:100318000CF000016051D92600016151DA22050E66
:10032800DF6E000120EE0DF000016051D9260001BA
:100338006151DA22060EDF6E7ED17DD17CD17BD170
:10034800000120EE1AF000016051D9260001615128
:10035800DA22DF500001BE6F000120EE19F0000123
:100368006051D92600016151DA22DF500001BE5DDB
:10037800D8B001D001D032D0000120EE1AF000012F
:100388006051D92600016151DA22DF500001BE6FA9
:100398000001BE51010D0F0EF326000EF422F3509A
:1003A800000100016025D96EF450000100016121AF
:1003B800DA6EDF50C96E000120EE1AF000016051BC
:1003C800D92600016151DA22DF2A0001BE6F010E31
:1003D80000010001C36F0001BE512DD1000120EEC4
:1003E8000CF000016051D92600016151DA22050E96
:1003F800DF6E21D120D1C7A801D001D07BD0000168
:1004080020EE0BF000016051D92600016151DA227B
:10041800DF2A00010001C851D8B401D001D055D05D
:10042800C7AA01D001D02FD0000120EE0AF00001A8
:100438006051D92600016151DA22DF500001BE6FF8
:100448000001BE51010DF350000100016025D96E75
:10045800F450000100016121DA6E0001C5C0DFFF20
:10046800000120EE0AF000016051D9260001615117
:10047800DA22DF2A0001BE6F010E00010001C76FFA
:100488000001BE512BD0000120EE0EF0000160519A
:10049800D92600016151DA22DF2A000120EE0DF091
:1004A80000016051D92600016151DA22060EDF6E83
:1004B800000120EE0CF000016051D92600016151C5
:1004C800DA22050EDF6E0AD009D00001BE6F010ED8
:1004D80000010001C76F0001BE5100D0000120EEED
:1004E8000CF000016051D92600016151DA22050E95
:1004F800DF6EA1D000010001C851D8B401D001D0ED
:100508009AD0000120EE0BF000016051D9260001BD
:100518006151DA22DF2AC7AA01D001D027D0000111
:1005280020EE0AF000016051D92600016151DA225B
:10053800DF500001BE6F0001BE51010DF3500001F4
:1005480000016025D96EF450000100016121DA6EC6
:100558000001C5C0DFFF000120EE0AF00001605174
:10056800D92600016151DA22DF2A65D0C7A401D05B
:1005780001D024D0000120EE0CF000016051D926F2
:1005880000016151DA22080EDF6E0001BE6F010E14
:1005980000010001C76F0001BE510001BE6F010ECE
:1005A80000010001C66F0001BE510001BE6F000EC0
:1005B80000010001C86F0001BE513DD0000120EECE
:1005C8000EF000016051D92600016151DA22DF2ABC
:1005D800000120EE0DF000016051D92600016151A3
:1005E800DA22060EDF6E000120EE0CF000016051E9
:1005F800D92600016151DA22050EDF6E1CD01BD00E
:100608001AD019D018D017D0000120EE0CF0000134
:100618006051D92600016151DA22DF50050AD8B4A9
:10062800BBD5030AD8B4E2D5010AD8B4E4D60F0A78
:10063800D8B486D600D000010001C86701D001D027
:1006480007D000010001C351D8B401D001D007D0B0
:10065800C6B801D001D003D0C68801D000D00001AF
:1006680020EE0AF000016051D92600016151DA221A
:10067800080EDF6401D001D027D000010001C76750
:1006880001D001D021D0000120EE0CF00001605112
:10069800D92600016151DA22050EDF6E000120EE35
:1006A8000EF000016051D92600016151DA22DF2ADB
:1006B800000120EE0DF000016051D92600016151C2
:1006C800DA22070EDF6E00D000010001C751D8B44E
:1006D80001D001D050D0000120EE0BF00001605194
:1006E800D92600016151DA22000110EE0AF000015A
:1006F8006051E12600016151E222E7500001BE6F1E
:100708000001BE51010DF350000100016025E16EAA
:10071800F450000100016121E26EDFCFE7FF000124
:1007280020EE0AF000016051D92600016151DA2259
:10073800DF500001BE6F0001BE2900010001BA6F41
:100748000001BF6F280E00010001BB6F0001BF51FF
:1007580060C0BCF061C0BDF00001E4EC0DF0000128
:1007680020EE0AF000016051D92600016151DA2219
:10077800000EDF6E5ED0000120EE0EF00001605129
:10078800D92600016151DA22DF50D8B401D001D056
:1007980050D0000120EE0EF000016051D926000172
:1007A8006151DA22DF5000010001C06F000120EE24
:1007B8000DF000016051D92600016151DA22DF50A5
:1007C80000010001C16F000120EE0BF00001605133
:1007D800D92600016151DA22DF5000010001C26F01
:1007E8000001BE6F030E00010001BA6F0001BE5187
:1007F8000001BF6F290E00010001BB6F0001BF514E
:100808000001000E00010001BD6F0001C00E0001D3
:10081800BC6F0001E4EC0DF0000120EE0EF00001C9
:100828006051D92600016151DA22000EDF6E01D035
:1008380000D000010001C651D8B401D001D020D0A9
:100848000001BE6F000E00010001BA6F0001BE5129
:100858000001BF6F2A0E00010001BB6F0001BF51EC
:1008680060C0BCF061C0BDF00001E4EC0DF0000117
:10087800BE6F000E00010001C66F0001BE5100D01E
:100888001200E00ED36E9B8C0101010E01010101E3
:10089800B36F0101ED0E0101B26F010144EC0EF0DE
:1008A8000101010E01010101B36F0101EA0E01010D
:1008B800B26F01017AEC0EF0F9EC0AF00101CF6F8A
:1008C800960E01010101B26F0101CF5101010FEC38
:1008D8000EF00101CF6F9B0E01010101B26F010102
:1008E800CF510101D06F000E01010101B36F010169
:1008F800D0510101D6EC0CF09F909F9A9F869D865F
:100908000101CF6F6C0E01010101B26F0101CF51DE
:10091800000E01010101B46F190E0101B36F01014D
:1009280025EC0AF0C3EC0EF09EEC0EF00101CF6F3F
:10093800500E01010101B76F0101CF51010111EC06
:1009480008F000D07CEC08F00101CF6F0A0E01011D
:100958000101CA6F0101CF510101010E010101011D
:10096800CC6F0101F30E0101CB6F0101010E0101F2
:100978000101CE6F0101DA0E0101CD6F010188EC92
:100988000DF001010101F26F01010101F2AF01D087
:1009980001D040D050D04FD04ED03CD00101010EF4
:1009A80001010101B36F0101E70E0101B26F0101FD
:1009B8000101F3C1B4F101010101B56B01010101AC
:1009C800F25101010101B66F0101B76B0101B6BF18
:1009D800B7070101010E01010101B96F0101DA0E2A
:1009E8000101B86F0101BEEC0EF025D0DAC1D9F1D2
:1009F80022D0E9C1B2F10101010E01010101B46F78
:100A08000101D10E0101B36F010198EC06F013D07A
:100A180012D011D001010101F3510A0AD8B4BED78E
:100A2800220AD8B4E3D7010AD8B4E0D7030AD8B465
:100A3800E0D701D000D00101CF6F0A0E01010101FA
:100A4800CA6F0101CF510101010E01010101CC6FF3
:100A58000101F30E0101CB6F0101010E010101013A
:100A6800CE6F0101DA0E0101CD6F0101A0EC0DF08E
:100A780001010101F26F01010101F2AF01D001D0C2
:100A8800A1D060D75FD75ED79DD00101CF6F000E90
:100A980001010101EC6F0101CF5136D001010101C3
:100AA800EC51070D010EF326000EF4220101000E91
:100AB800F324D96E0101010EF420DA6E0101DECFB4
:100AC800BCF10101DDCFBDF101010101EC51070DC0
:100AD800050EF326000EF4220101000EF324D96E50
:100AE8000101010EF420DA6E01D80AD00500FA6E71
:100AF800DE50FD6EDE50FE6EF850FF6EFA501200AA
:100B080001010101EC2B00D000010001635101013A
:100B18000101EC5DD8A001D001D0C0D700D00101FF
:100B2800010E01010101B36F0101EA0E0101B26F6B
:100B380001010101F3C1B4F101010101B56B01012A
:100B48000101F25101010101B66F0101B76B010109
:100B5800B6BFB7070101010E01010101B96F01011B
:100B6800DA0E0101B86F0101A6EC0EF0EBD600D049
:100B78000101010E01010101B36F0101E50E01013F
:100B8800B26F01010101F3C1B4F101010101B56BBB
:100B980001010101F25101010101B66F0101B76BB9
:100BA8000101B6BFB7070101010E01010101B96FCB
:100BB8000101DA0E0101B86F010142EC0CF0C2D656
:100BC800C1D6C0D601010101F3510B0AD8B45DD7D3
:100BD800150AD8B4CDD7010AD8B4CAD7B3D6B2D675
:100BE800B1D6B0D661EF00F0010120EE35F0010179
:100BF800BC51D9260101BD51DA22DF5001010101A2
:100C0800C56F01010101C5510D0DF350010101012D
:100C1800BC2501010101C86FF45001010101BD218A
:100C28000101C96F010EC8C1D9FFC9C1DAFFDF626E
:100C380001D001D075D0010120EE01F00101C851A9
:100C4800D9260101C951DA22DF5001010101BE6133
:100C580001D001D003D0FD0E66D065D0010120EE91
:100C680001F00101C851D9260101C951DA22DF502A
:100C78000101C36F0101C35101010101C66F0101E7
:100C8800C76BC1C1B2F1C2C1B3F1030E01010101C9
:100C9800C8250101C36F000E01010101C92101012D
:100CA800C46FC3C1B4F1C4C1B5F1C6C1B6F1C7C1FF
:100CB800B7F10101ECEC0BF0010120EE35F0010178
:100CC800BC51D9260101BD51DA22010110EE35F0DF
:100CD8000101BC51E1260101BD51E222E7500101A9
:100CE800C36F0101C329030BDF6E010120EE02F07F
:100CF8000101C851D9260101C951DA22BFC1E1FF5A
:100D0800C0C1E2FFDFCFE7FFC8C1D9FFC9C1DAFF21
:100D1800000EDF6E01010101C65105D004D003D0D9
:100D2800FC0E01D000D01200000120EE19F00001E5
:100D38006051D92600016151DA22000EDF6E43D0DE
:100D4800000120EE19F000016051D926000161511F
:100D5800DA22DF500101B56F0101B551010DF350E1
:100D680001010101B325D96EF45001010101B4213B
:100D7800DA6E000110EE19F000016051E126000161
:100D88006151E222E7500101B66F0101B651010D30
:100D98000F0EF326000EF422F35000010001602527
:100DA800E16EF450000100016121E26EDFCFE7FF40
:100DB800000120EE19F000016051D92600016151AF
:100DC800DA22DF2A00D0000120EE19F0000160517C
:100DD800D92600016151DA22DF500101B56F010106
:100DE8000101B2510101B55DD8A001D001D0A8D749
:100DF80000D0000120EE19F000016051D926000151
:100E08006151DA220101B2C1DFFF000120EE1AF0C0
:100E180000016051D92600016151DA22010EDF6E0E
:100E2800000120EE0FF000016051D9260001615148
:100E3800DA22DF50C96EC688120000010001B0C076
:100E4800B5F000010001B66B000120EE34F000019E
:100E5800AE51D9260001AF51DA22DF50000100015E
:100E6800B76F00010001B7510D0DF35000010001EB
:100E7800AE2500010001B86FF45000010001AF2158
:100E88000001B96FB8C0D9FFB9C0DAFFDF50D8B4D4
:100E980001D001D003D0FF0E52D051D0000120EE76
:100EA80001F00001B851D9260001B951DA22000138
:100EB800B0C0DFFF000120EE02F00001B851D926D2
:100EC8000001B951DA220001B1C0DFFF030E0001B1
:100ED8000001B82500010001A46F000E0001000107
:100EE800B9210001A56FB2C0A6F0B3C0A7F0B5C084
:100EF800A8F0B6C0A9F0000117EC0CF0000120EE34
:100F080034F00001AE51D9260001AF51DA220001B8
:100F180010EE34F00001AE51E1260001AF51E2229B
:100F2800E7500001B46F0001B429030BDF6EB8C0AD
:100F3800D9FFB9C0DAFF010EDF6E010E00D0120032
:100F4800000120EE0BF000016051D926000161512B
:100F5800DA22010EDF6E000120EE0AF00001605176
:100F6800D92600016151DA22000EDF6E000100016E
:100F7800A451D8B401D001D043D0C7AA01D001D020
:100F880021D0000120EE0CF000016051D9260001AB
:100F98006151DA22050EDF6E000120EE0EF000012D
:100FA8006051D92600016151DA22DF2A000120EEC2
:100FB8000DF000016051D92600016151DA22050EB9
:100FC800DF6E2AD0C7A401D001D00CD0000120EEDA
:100FD8000CF000016051D92600016151DA22080E97
:100FE800DF6E1AD0000120EE0CF000016051D92606
:100FF80000016151DA22070EDF6E0ED00DD00CD041
:10100800000120EE0CF000016051D9260001615169
:10101800DA22060EDF6E00D01200000E0101010177
:10102800B36F0C0E0101B26F0101CEEC0DF001019E
:10103800B2C1B8F10101B3C1B9F1B8C1D9FFB9C1A1
:10104800DAFF0101B7C1DFFF010120EE01F0010164
:10105800B851D9260101B951DA22200EDF6E0001FC
:1010680000016351070D010EF326000EF422010161
:10107800000EF324D96E0101010EF420DA6E01018D
:10108800B8C1DEFF0101B9C1DDFF000100016351F4
:10109800070D030EF326000EF4220101000EF324BF
:1010A800D96E0101010EF420DA6E000EDE6E000E1C
:1010B800DD6E000100016351070D050EF326000ED9
:1010C800F4220101000EF324D96E0101010EF4206F
:1010D800DA6E640EDE6E160EDD6E00010001632B03
:1010E800B8C1B3F1B9C1B4F10101F9EC0CF01200C7
:1010F8000101C0EC0BF001010101B7510101B6116A
:10110800D8A401D001D002D04DD04CD00101B86F85
:10111800010E00010001626F0101B85100D0010108
:10112800010E01010101B36F01017C0E0101B26FD3
:10113800010119EC0DF00009D8B401D001D00AD092
:101148000101B86F000E00010001626F0101B85182
:1011580029D028D00001000E01010101B36F000160
:10116800640E0101B26F010119EC0DF00009D8B449
:1011780001D001D00AD00101B86F000E00010001B2
:10118800626F0101B8510ED00DD00101B86F0A0E7F
:1011980001010101B26F0101B851010166EC0EF0C5
:1011A800BED7BDD712009EAA01D001D041D020EEF3
:1011B80004F03050D9263150DA22DF501B6E1B5014
:1011C800010DF3503024D96EF4503120DA6E35EC2D
:1011D8000DF0DF6E20EE04F03050D9263150DA22BF
:1011E800DF2A20EE04F03050D9263150DA22040EDE
:1011F800DF6201D001D01CD020EE04F03050D92697
:101208003150DA22DF50176E1B6E1F0E186E1B50FE
:1012180030C019F031C01AF024EC0EF020EE04F0C2
:101228003050D9263150DA22000EDF6E01D000D0BE
:1012380032A601D001D011D0AC98AC881B6E000E3C
:10124800176E1B501C6E1E0E186E1C50000E1A6E68
:10125800000E196E24EC0EF000D012000DC012F032
:10126800136A20EE34F00B50D9260C50DA22DF50E6
:10127800146E14500D0DF3500B24156EF4500C2001
:10128800166E15C0D9FF16C0DAFFDF50D8B401D0EA
:1012980001D003D0FF0E3AD039D020EE01F015501E
:1012A800D9261650DA220DC0DFFF20EE02F01550C5
:1012B800D9261650DA220EC0DFFF030E1524016E60
:1012C800000E1620026E0FC003F010C004F012C00A
:1012D80005F013C006F0B2EC0CF020EE34F00B5021
:1012E800D9260C50DA2210EE34F00B50E1260C50BF
:1012F800E222E750116E1128030BDF6E15C0D9FFEB
:1013080016C0DAFF010EDF6E010E00D01200B6EC37
:101318000EF001010101B3510101B32501010101E1
:10132800B26F010151EC0EF0B4C1B2F1010151EC00
:101338000EF0000E01010101BB6F000E0101BA6F32
:101348001AD001010101BA5101010101B525D96E77
:1013580001010101BB5101010101B621DA6EDF5023
:1013680001010101B26F010151EC0EF0010101010F
:10137800BA4BBB2B00D001010101BB51800A01010E
:10138800B96F0101B75101010101BA5D0101010104
:10139800B851800A0101B959D8A001D001D0D1D7DC
:1013A80000D0AEEC0EF0120000010001626701D01F
:1013B80001D002D045D044D0000191EC0BF00001DF
:1013C8000001A7510001A611D8B401D001D002D064
:1013D80037D036D0000170EC0EF000010001A551A5
:1013E8000001A411D8A401D001D002D029D028D05E
:1013F8000101010E00010001A56F01017C0E000131
:10140800A46F000151EC0DF00009D8B401D001D04F
:1014180002D016D015D00001000E00010001A56F02
:101428000001640E0001A46F000151EC0DF00009E9
:10143800D8B401D001D002D003D002D0CAEC0EF04B
:101448001200000EAD6E000EAC6E01010101B2A1DA
:1014580001D001D001D0AD8801010101B2A301D0B2
:1014680001D002D0AD8CAC8C01010101B2A501D034
:1014780001D001D0AD8E01010101B2A701D001D088
:1014880002D0AC8801D0AC8A01010101B2A901D017
:1014980001D001D0AD8401010101B2AB01D001D06E
:1014A80001D0AC8601010101B2AD01D001D002D05A
:1014B8009D8A01D09D9A01010101B2AF01D001D0EE
:1014C80002D09D8801D09D98B3C1B0FF01010101F0
:1014D800B4517F6EAD8AAC8E1200EACFCCF0E1CF6A
:1014E800CDF0E2CFCEF0D9CFCFF0DACFD0F0F3CF36
:1014F800D1F0F4CFD2F0F6CFD3F0F7CFD4F0F8CFC5
:10150800D5F0F5CFD6F09EA601D001D004D09E9696
:1015180063EC00F000D0F2A401D001D004D0F29422
:1015280069EC0CF000D0D8EC09F0D6C0F5FFD5C0B6
:10153800F8FFD4C0F7FFD3C0F6FFD2C0F4FFD1C084
:10154800F3FFD0C0DAFFCFC0D9FFCEC0E2FFCDC0D5
:10155800E1FFCCC0EAFFCBC0E9FFCAC0FBFFC9C0AE
:10156800FAFF1100010120EE34F00101B251D92631
:101578000101B351DA22000EDF6E010120EE35F0D1
:101588000101B251D9260101B351DA22000EDF6EF2
:101598000101B46F000E01010101B56F0101B451E1
:1015A800030E01010101B56501D001D002D01CD0A4
:1015B8001BD001010101B5510D0DF35001010101CD
:1015C800B225D96EF45001010101B321DA6E000E83
:1015D800DF6E01010101B52B030E01010101B565A3
:1015E80001D001D0E6D700D012000101B66F000E7D
:1015F80000010001626F0101B6510001000E0101F6
:101608000101B36F0001640E0101B26F0101B6EC74
:101618000AF00101010E01010101B36F01017C0E05
:101628000101B26F0101B6EC0AF00101010E0101DE
:101638000101B36F0101460E0101B26F0101B6EC61
:101648000AF00201020E01010101B36F0201000E4E
:101658000101B26F0101B6EC0AF01200BCC1BFF182
:10166800BDC1C0F10101BE6F020E01010101C16FD0
:101678000101BE51BFC1D9FFC0C1DAFFDF5001016E
:101688000101B36F0101BE6F300E01010101B46F9A
:101698000101BE510101010E01010101B66F0101F5
:1016A800C10E0101B56F000E01010101B86F010EF5
:1016B8000101B76F01018BEC09F01200F2AC01D007
:1016C80001D00AD0000E01010101B56F000E010121
:1016D800B46F22D021D020D001015CEC0EF00101C2
:1016E8000101B3510101B211D8B401D001D00AD01F
:1016F800000E01010101B56F000E0101B46F0CD09D
:101708000BD00AD0000E01010101B56F010E0101D5
:10171800B46F02D001D000D01200F2AC01D001D0D9
:101728000AD0000E00010001A76F000E0001A66F8D
:1017380022D021D020D0000170EC0EF00001000171
:10174800A5510001A411D8B401D001D00AD0000ECF
:1017580000010001A76F000E0001A66F0CD00BD08E
:101768000AD0000E00010001A76F010E0001A66F4C
:1017780002D001D000D01200010162EC0BF001018F
:101788000101B5510101B411D8A401D001D016D07E
:1017980001015CEC0EF001010101B3510101B2112C
:1017A800D8A401D001D00AD0000E01010101B76F01
:1017B800010E0101B66F0BD00AD009D0000E01014D
:1017C8000101B76F000E0101B66F01D000D0120001
:1017D800B4C1BAF1B5C1BBF1B2C1B8F1B3C1B9F185
:1017E80013D0BAC1D9FFBBC1DAFFB8C1E1FFB9C193
:1017F800E2FFDFCFE7FF01010101BA4BBB2B01017B
:101808000101B84BB92B00D001010101B607D8A0DE
:10181800B7070101B629D8B4B729D8A401D001D097
:10182800E0D700D01200A6C0ACF0A7C0ADF0A4C0AD
:10183800AAF0A5C0ABF013D0ACC0D9FFADC0DAFF99
:10184800AAC0E1FFABC0E2FFDFCFE7FF0001000164
:10185800AC4BAD2B00010001AA4BAB2B00D0000113
:101868000001A807D8A0A9070001A829D8B4A92968
:10187800D8A401D001D0E0D700D0120001010101A5
:10188800B4511E0AB511D8A401D001D002D01CD081
:101898001BD001010101B4511F0AB511D8A401D010
:1018A80001D012D001010101B65101010101B82591
:1018B800D96E01010101B75101010101B921DA6EA7
:1018C800000EDF6E01D000D012000001BE6F000EC6
:1018D80000010001BA6F0001BE510001BF6F0A0E7E
:1018E80000010001BB6F0001BF51000E00010001A3
:1018F800BD6F000E0001BC6F0001E4EC0DF0000E9E
:1019080000010001A56F000E0001A46F000195EC15
:101918000EF0120002EE00F0360EEE6AE806FDE167
:1019280001EE00F0B20EEE6AE806FDE100EE60F0AE
:10193800440EEE6AE806FDE1326A9A0EF66E1D0E56
:10194800F76E000EF86E0900F5CFD7F00900F5CF55
:10195800D8F0000EF86E000145EF04F003C009F05E
:1019680004C00AF001C007F002C008F00FD009C097
:10197800D9FF0AC0DAFF07C0E1FF08C0E2FFDFCFE6
:10198800E7FF094A0A2A074A082A00D00506D8A00C
:1019980006060528D8B40628D8A401D001D0E7D770
:1019A80000D0120001010101B351F30B9A6EB2C1CC
:1019B800B4F17F0E0101B4170101D890B435CD6E92
:1019C800000ECF6E000ECE6E9E9001010101B2AFE7
:1019D80001D001D002D09D8001D09D909AAE01D057
:1019E80001D001D09A86CD801200B3C1B5F1B4C13F
:1019F800B6F1010120EE02F00101B551D92601012D
:101A0800B651DA220E0EDF6E010120EE02F001015E
:101A1800B551D9260101B651DA22DF500101010181
:101A2800B26F0101C7EC0EF01200010120EE35F093
:101A38000101B251D9260101B351DA22DF50010167
:101A4800B46F0101B4510D0DF35001010101B2252C
:101A5800D96EF45001010101B321DA6EDF5000D0D4
:101A68001200F20E3216ACAC01D001D007D0329081
:101A7800ACA001D001D002D0328000D0ACA401D0FB
:101A880001D001D03284ACA201D001D001D032867D
:101A9800AFCF01F0015000D01200000120EE35F068
:101AA8000001A451D9260001A551DA22DF50000116
:101AB800A66F0001A6510D0DF35000010001A425E9
:101AC800D96EF45000010001A521DA6EDF5000D074
:101AD800120083EC0EF001C01DF002C01EF01B6E58
:101AE800000E176E1B501C6E0B0E186E1C50000E4D
:101AF8001A6E000E196E24EC0EF0000E026E000E27
:101B0800016E8CEC0EF012000101010E01010101C1
:101B1800BD6F01017C0E0101BC6FCAC1BEF1CBC112
:101B2800BFF1CCC1C0F1CDC1C1F1CEC1C2F101013B
:101B3800F8EC05F000D012000001000E01010101CF
:101B4800BD6F0001640E0101BC6FCAC1BEF1CBC1FB
:101B5800BFF1CCC1C0F1CDC1C1F1CEC1C2F101010B
:101B6800F8EC05F000D01200BCC1BFF1BDC1C0F156
:101B780089A401D002D0010E01D0000E0101BE6F70
:101B88000101BE47BE4789500101BE19FB0BBE19B2
:101B9800896E1200D7C0B4F1D8C0B5F101010101B6
:101BA800B25100010001D72701010101B351000121
:101BB8000001D823B4C1B2F1B5C1B3F100D012000D
:101BC8000101010E00010001AF6F01017C0E00014F
:101BD800AE6FBAC0B0F0BBC0B1F0BCC0B2F0BDC00F
:101BE800B3F0000121EC07F000D01200BCC1BFF136
:101BF800BDC1C0F189A201D002D0010E01D0000EF2
:101C08000101BE6F0101BE4789500101BE19FD0BDC
:101C1800BE19896E120001010101B2517F0BD56E08
:101C2800000ED76E000ED66EF29401010101B2AF1C
:101C380001D001D002D0F28A01D0F29AD58E1200DA
:101C48000001000E0C6E0001640E0B6E17C00DF043
:101C580018C00EF019C00FF01AC010F032EC09F0DD
:101C680000D0120001D000D0C5501F0BD8A401D05D
:101C780001D0FAD7C7B401D001D0F6D700D01200EE
:101C8800B2C130F0B3C131F020EE04F03050D926A3
:101C98003150DA22000EDF6E1200B2C1C9FF00D047
:101CA800C7B001D001D0FCD700D036EC0EF012003E
:101CB800000EF2AE010E01010101B26F0101B36B1A
:101CC80000D01200FA0E00F0E82EFDD70101010144
:101CD800B22FF8D700D01200000EF2AE010E0001AC
:101CE8000001A46F0001A56B00D01200B2C1D9FF9A
:101CF800B3C1DAFF000EDE6E000EDD6E1200CECF2D
:101D080003F0CFCF04F003C001F004C002F01200CA
:101D180001C003F002C004F004C0CFFF03C0CEFF2F
:101D28001200A4C0A6F0A5C0A7F0A7C0D7FFA6C000
:101D3800D6FF120094869488C78E280EC66E280E89
:101D4800C86E1200B2C1D9FFB3C1DAFFDE2A000E95
:101D5800DD221200C58400D0C5B401D001D0FCD763
:101D680000D01200C58000D0C5B001D001D0FCD78A
:101D780000D01200B8C1BAF1B9C1BBF11200D08EBF
:101D8800F28EF28C1200B2C189FF1200D38E0300CA
:041D980012009A009B
:08FFF8008AF795FFF2F9FFF111
:00000001FF
