:0400000068EF00F0B5
:10000800FACFC7F0FBCFC8F0E9CFC9F0CEED0AF0C0
:10001800D8CF1FF0E8CF20F0E0CF21F0FACF22F0C0
:10002800FBCF23F0E9CF24F0EACF25F0E1CF26F08B
:10003800E2CF27F0D9CF28F0DACF29F0F3CF2AF092
:10004800F4CF2BF0F6CF2CF0F7CF2DF0F8CF2EF021
:10005800F5CF2FF09EA001D001D004D09E90E7EC00
:100068000CF000D09EAA01D001D004D09E9AEFECEB
:1000780007F000D09EA801D001D003D088EC0AF088
:1000880000D02FC0F5FF2EC0F8FF2DC0F7FF2CC001
:10009800F6FF2BC0F4FF2AC0F3FF29C0DAFF28C0FF
:1000A800D9FF27C0E2FF26C0E1FF25C0EAFF24C030
:1000B800E9FF23C0FBFF22C0FAFF21C0E0FF20C0F8
:1000C800E8FF1FC0D8FF100036EF0DF00001BC6F2D
:1000D800000E00010001C66F0001BC510001BC6F99
:1000E800000E00010001C16F0001BC510001BC6F8E
:1000F800000E00010001C56F0001BC510001BC6F7A
:10010800000E00010001C46F0001BC510001BC6F6A
:10011800000E00010001C26F0001BC51C6AC01D045
:1001280001D021D0C69C20EE0CF03050D926315099
:10013800DA22050EDF6E0001BC6F010E000100011E
:10014800C26F0001BC5120EE0EF03050D92631505C
:10015800DA22DF2A20EE0DF03050D9263150DA228B
:10016800040EDF6E00D0C7A001D001D00BD0C9CFDC
:10017800C3F00001BC6F010E00010001C66F000151
:10018800BC5100D000010001C26701D001D0E8D104
:10019800D3D1D2D1C7A601D001D0E2D1C6C0A2F036
:1001A8000001E6EC09F020EE0CF03050D926315071
:1001B800DA22080EDF6201D001D0D2D10001BC6F73
:1001C800000E00010001C66F0001BC510001BC6FA8
:1001D800010E00010001C46F0001BC51C1D1C0D1A2
:1001E800BFD1C7A801D001D034D020EE0BF03050D9
:1001F800D9263150DA22DF2A00010001C651D8B4CD
:1002080001D001D01DD0C7BA01D001D009D000015A
:10021800BC6F010E00010001C56F0001BC5110D078
:1002280020EE0EF03050D9263150DA22DF2A20EEA7
:100238000DF03050D9263150DA22060EDF6E00D08C
:1002480020EE0CF03050D9263150DA22050EDF6E40
:1002580087D100010001C651D8B401D001D080D1A6
:1002680020EE0BF03050D9263150DA22DF2AC7BAF7
:1002780001D001D027D0C7B401D001D009D020EED9
:100288000CF03050D9263150DA22070EDF6E68D1D3
:1002980020EE0CF03050D9263150DA22080EDF6EED
:1002A8000001BC6F010E00010001C46F0001BC51C8
:1002B8000001BC6F000E00010001C66F0001BC51B7
:1002C8004FD14ED120EE0EF03050D9263150DA22DF
:1002D800DF2A20EE0CF03050D9263150DA22050EF4
:1002E800DF6E20EE0DF03050D9263150DA22060E9E
:1002F800DF6E36D135D134D133D120EE1AF03050FB
:10030800D9263150DA22DF500001BC6F20EE19F0F7
:100318003050D9263150DA22DF500001BC5DD8B008
:1003280001D001D028D020EE1AF03050D926315013
:10033800DA22DF500001BC6F0001BC51010D0F0E25
:10034800F326000EF422F3503024D96EF4503120F5
:10035800DA6EDF50C96E20EE1AF03050D9263150CF
:10036800DA22DF2A0001BC6F010E00010001C16F13
:100378000001BC51F5D020EE0CF03050D926315098
:10038800DA22050EDF6EECD0EBD0C7A801D001D081
:1003980062D020EE0BF03050D9263150DA22DF2A15
:1003A80000010001C651D8B401D001D042D0C7AA7B
:1003B80001D001D025D020EE0AF03050D926315096
:1003C800DA22DF500001BC6F0001BC51010DF3506F
:1003D8003024D96EF4503120DA6E0001C3C0DFFF3B
:1003E80020EE0AF03050D9263150DA22DF2A0001F7
:1003F800BC6F010E00010001C56F0001BC5122D085
:1004080020EE0EF03050D9263150DA22DF2A20EEC5
:100418000DF03050D9263150DA22060EDF6E20EE6C
:100428000CF03050D9263150DA22050EDF6E0AD092
:1004380009D00001BC6F010E00010001C56F000169
:10044800BC5100D020EE0CF03050D9263150DA22C1
:10045800050EDF6E85D000010001C651D8B401D069
:1004680001D07ED020EE0BF03050D9263150DA2260
:10047800DF2AC7AA01D001D01DD020EE0AF03050E3
:10048800D9263150DA22DF500001BC6F0001BC517F
:10049800010DF3503024D96EF4503120DA6E00018A
:1004A800C3C0DFFF20EE0AF03050D9263150DA22DF
:1004B800DF2A56D0C7A401D001D021D020EE0CF0FD
:1004C8003050D9263150DA22080EDF6E0001BC6F99
:1004D800010E00010001C56F0001BC510001BC6F95
:1004E800010E00010001C46F0001BC510001BC6F86
:1004F800000E00010001C66F0001BC5131D020EE92
:100508000EF03050D9263150DA22DF2A20EE0DF0D5
:100518003050D9263150DA22060EDF6E20EE0CF06C
:100528003050D9263150DA22050EDF6E19D018D096
:1005380017D016D015D014D020EE0CF03050D92694
:100548003150DA22DF50050AD8B424D6030AD8B4C9
:1005580048D6010AD8B419D70F0AD8B4CED600D0D5
:1005680000010001C66701D001D007D000010001D9
:10057800C151D8B401D001D007D0C6B801D001D03C
:1005880003D0C68801D000D020EE0AF03050D9261A
:100598003150DA22080EDF6401D001D01ED00001EC
:1005A8000001C56701D001D018D020EE0CF0305002
:1005B800D9263150DA22050EDF6E20EE0EF03050CB
:1005C800D9263150DA22DF2A20EE0DF03050D92614
:1005D8003150DA22070EDF6E00D000010001C5514C
:1005E800D8B401D001D040D020EE0BF03050D9263D
:1005F8003150DA2210EE0AF03050E1263150E22272
:10060800E7500001BC6F0001BC51010DF3503024CC
:10061800E16EF4503120E26EDFCFE7FF20EE0AF002
:100628003050D9263150DA22DF500001BC6F00016A
:10063800BC2900010001B86F0001BD6F280E000140
:100648000001B96F0001BD5130C0BAF031C0BBF034
:100658000001B1EC0EF020EE0AF03050D9263150EE
:10066800DA22000EDF6E4FD020EE0EF03050D92681
:100678003150DA22DF50D8B401D001D044D020EE76
:100688000EF03050D9263150DA22DF500001000137
:10069800BE6F20EE0DF03050D9263150DA22DF50EF
:1006A80000010001BF6F20EE0BF03050D926315009
:1006B800DA22DF5000010001C06F0001BC6F030E99
:1006C80000010001B86F0001BC510001BD6F290E87
:1006D80000010001B96F0001BD510001000E0001C9
:1006E8000001BB6F0001BE0E0001BA6F0001B1EC42
:1006F8000EF020EE0EF03050D9263150DA22000EDE
:10070800DF6E01D000D000010001C451D8B401D07F
:1007180001D020D00001BC6F000E00010001B86FAD
:100728000001BC510001BD6F2A0E00010001B96F24
:100738000001BD5130C0BAF031C0BBF00001B1ECCE
:100748000EF00001BC6F000E00010001C46F000133
:10075800BC5100D01200FC0ED36E9B8C0101010E1F
:1007680001010101B66F0101E50E0101B56F01013B
:1007780080EC0DF00101010E01010101B36F0101CF
:10078800E00E0101B26F010165EC0FF09BEC0BF07C
:10079800000E926E0101CF6F960E01010101B26F3A
:1007A8000101CF510101DCEC0EF00101CF6FF50E14
:1007B80001010101B26F0101CF510101E2EC0DF01D
:1007C8009F909F9A9F869D860101CF6F6C0E0101B5
:1007D8000101B26F0101CF51000E01010101B46F97
:1007E800190E0101B36F010133EC09F0C8EC0FF0E9
:1007F8009BEC0FF00101CF6F4F0E01010101B76FA4
:100808000101CF5101015DEC08F00101CF6F490EE4
:1008180001010101B76F0101CF510101C8EC08F0D6
:1008280000D07FEC07F00101CF6F0A0E0101010132
:10083800CA6F0101CF510101010E01010101CC6F05
:100848000101E40E0101CB6F0101010E010101015B
:10085800CE6F0101D10E0101CD6F010155EC0EF0F3
:1008680001010101E36F01010101E3AF01D001D0F2
:1008780032D042D041D040D02ED00101010E01012A
:100888000101B36F0101DE0E0101B26F0101010127
:10089800E4C1B4F101010101B56B01010101E351AA
:1008A80001010101B66F0101B76B0101B6BFB707BE
:1008B8000101010E01010101B96F0101D10E010110
:1008C800B86F0101C3EC0FF017D0D1C1D0F114D02B
:1008D80013D012D011D001010101E4510A0AD8B491
:1008E800CCD7220AD8B4F1D7010AD8B4EED7030A74
:1008F800D8B402D001D000D00101CF6F0A0E010197
:100908000101CA6F0101CF510101010E010101016D
:10091800CC6F0101E40E0101CB6F0101010E010151
:100928000101CE6F0101D10E0101CD6F01016DEC06
:100938000EF001010101E36F01010101E3AF01D0F4
:1009480001D0A1D06ED76DD76CD79DD00101CF6FE4
:10095800000E01010101E26F0101CF5136D0010102
:100968000101E251070D010EF326000EF4220101E8
:10097800000EF324D96E0101010EF420DA6E010194
:10098800DECFBDF10101DDCFBEF101010101E25170
:10099800070D050EF326000EF4220101000EF324C4
:1009A800D96E0101010EF420DA6E01D80AD00500D3
:1009B800FA6EDE50FD6EDE50FE6EF850FF6EFA5095
:1009C800120001010101E22B00D000010001615178
:1009D80001010101E25DD8A001D001D0C0D700D04B
:1009E8000101010E01010101B36F0101E00E0101D6
:1009F800B26F01010101E4C1B4F101010101B56B5C
:100A080001010101E35101010101B66F0101B76B59
:100A18000101B6BFB7070101010E01010101B96F5C
:100A28000101D10E0101B86F0101A3EC0FF0F9D655
:100A380000D00101010E01010101B36F0101DC0EBB
:100A48000101B26F01010101E4C1B4F10101010129
:100A5800B56B01010101E35101010101B66F01010B
:100A6800B76B0101B6BFB7070101010E0101010112
:100A7800B96F0101D10E0101B86F01010FEC0DF042
:100A8800D0D6CFD6CED601010101E4510B0AD8B495
:100A98005DD7150AD8B4CDD7010AD8B4CAD7C1D6FC
:100AA800C0D6BFD6BED668EF00F0010120EE35F003
:100AB8000101BC51D9260101BD51DA22DF500101E3
:100AC8000101C56F01010101C5510D0DF35001016F
:100AD8000101BC2501010101C86FF45001010101A8
:100AE800BD210101C96F010EC8C1D9FFC9C1DAFF13
:100AF800DF6201D001D075D0010120EE01F00101C3
:100B0800C851D9260101C951DA22DF50010101017A
:100B1800BE6101D001D003D0FD0E66D065D00101C1
:100B280020EE01F00101C851D9260101C951DA228C
:100B3800DF500101C36F0101C35101010101C66FFB
:100B48000101C76BC1C1B2F1C2C1B3F1030E01010A
:100B58000101C8250101C36F000E01010101C9216E
:100B68000101C46FC3C1B4F1C4C1B5F1C6C1B6F1C6
:100B7800C7C1B7F1010191EC0CF0010120EE35F08D
:100B88000101BC51D9260101BD51DA22010110EE43
:100B980035F00101BC51E1260101BD51E222E750C7
:100BA8000101C36F0101C329030BDF6E010120EEB0
:100BB80002F00101C851D9260101C951DA22BFC189
:100BC800E1FFC0C1E2FFDFCFE7FFC8C1D9FFC9C15C
:100BD800DAFF000EDF6E01010101C65105D004D015
:100BE80003D0FC0E01D000D01200000120EE11F05D
:100BF8000001D551D9260001D651DA22000EDF6E48
:100C080043D0000120EE11F00001D551D926000192
:100C1800D651DA22DF500101B66F0101B651010D3C
:100C2800F35001010101B425D96EF450010101010D
:100C3800B521DA6E000110EE11F00001D551E12660
:100C48000001D651E222E7500101B76F0101B75107
:100C5800010D090EF326000EF422F35000010001E5
:100C6800D525E16EF45000010001D621E26EDFCFF8
:100C7800E7FF000120EE11F00001D551D92600014F
:100C8800D651DA22DF2A00D0000120EE11F000014F
:100C9800D551D9260001D651DA22DF500101B66FAD
:100CA80001010101B3510101B65DD8A001D001D005
:100CB800A8D700D0000120EE11F00001D551D926A7
:100CC8000001D651DA220101B3C1DFFF000120EE95
:100CD80012F00001D551D9260001D651DA22010EB1
:100CE800DF6E000120EE09F00001D551D926000180
:100CF800D651DA22DF5001010101B26F010112EC75
:100D08000FF0120000010001AEC0B3F000010001B5
:100D1800B46B000120EE34F00001AC51D92600017B
:100D2800AD51DA22DF5000010001B56F000100016A
:100D3800B5510D0DF35000010001AC250001000173
:100D4800B66FF45000010001AD210001B76FB6C0C5
:100D5800D9FFB7C0DAFFDF50D8B401D001D003D033
:100D6800FF0E52D051D0000120EE01F00001B65123
:100D7800D9260001B751DA220001AEC0DFFF000119
:100D880020EE02F00001B651D9260001B751DA224F
:100D98000001AFC0DFFF030E00010001B62500010E
:100DA8000001A26F000E00010001B7210001A36F2E
:100DB800B0C0A4F0B1C0A5F0B3C0A6F0B4C0A7F00D
:100DC8000001BCEC0CF0000120EE34F00001AC5145
:100DD800D9260001AD51DA22000110EE34F00001ED
:100DE800AC51E1260001AD51E222E7500001B26F9B
:100DF8000001B229030BDF6EB6C0D9FFB7C0DAFF16
:100E0800010EDF6E010E00D01200ABEC0FF00101F5
:100E18000101B3510101B32501010101B26F0101C3
:100E28003CEC0FF0B4C1B2F101013CEC0FF0BBECAB
:100E38000FF0000E01010101BC6F000E0101BB6F34
:100E480041D0D88001010101B33501010101B26F20
:100E580001013CEC0FF001010101BB51010101014D
:100E6800B525D96E01010101BC5101010101B6216D
:100E7800DA6E03EC0FF0DF6EFF0E01010101B725FA
:100E88000101B96FFF0E01010101B8210101BA6F1B
:100E980001010101BC510101BA1905E1010101017A
:100EA800BB510101B919D8A401D001D003D077EC06
:100EB8000FF003D06EEC0FF000D001010101BB4B25
:100EC800BC2B00D001010101BC51800A0101B96F9E
:100ED8000101B75101010101BB5D01010101B851D7
:100EE800800A0101B959D8A001D001D0AAD700D0F1
:100EF800B3EC0FF01200010165EC0CF001010101E7
:100F0800B7510101B611D8A401D001D002D062D0E6
:100F180061D08A860101B86F010E00010001606F7F
:100F28000101B85100D00101010E01010101B36FA7
:100F380001017C0E0101B26F010101EC0EF0000904
:100F4800D8B401D001D00BD00101B86F000E000158
:100F58000001606F0101B8518A963CD03BD0000176
:100F6800000E01010101B36F0001620E0101B26FB1
:100F7800010101EC0EF00009D8B401D001D00BD06A
:100F88000101B86F000E00010001606F0101B85146
:100F98008A9620D01FD00101B86F0A0E0101010105
:100FA800B26F0101B851010151EC0FF08AA601D0CE
:100FB80002D0010E01D0000E0101B86F0101B8473F
:100FC800B847B8478A500101B819F70BB8198A6EA3
:100FD800AAD7A9D712009EAA01D001D054D00001E7
:100FE80020EE08F00001D551D9260001D651DA22A9
:100FF800DF501B6E1B50010DF35000010001D52579
:10100800D96EF45000010001D621DA6E1DEC0EF005
:10101800DF6E000120EE08F00001D551D92600014D
:10102800D651DA22DF2A000120EE08F00001D5515E
:10103800D9260001D651DA22080EDF6201D001D08C
:1010480022D0000120EE08F00001D551D926000178
:10105800D651DA22DF50176E1B6E1F0E186E1B500A
:10106800D5C019F0D6C01AF0F1EC0EF0000120EE50
:1010780008F00001D551D9260001D651DA22000E18
:10108800DF6E01D000D032A601D001D011D0AB98CC
:10109800AB881B6E000E176E1B501C6E1E0E186E52
:1010A8001C50000E1A6E000E196EF1EC0EF000D0F6
:1010B8001200000E01010101B36F0C0E0101B26FA5
:1010C80001019BEC0EF00101B2C1B8F10101B3C1FD
:1010D800B9F1B8C1D9FFB9C1DAFF0101B7C1DFFF62
:1010E800010120EE01F00101B851D9260101B951E1
:1010F800DA22200EDF6E000100016151070D010E9A
:10110800F326000EF4220101000EF324D96E01012A
:10111800010EF420DA6E0101B8C1DEFF0101B9C188
:10112800DDFF000100016151070D030EF326000EDB
:10113800F4220101000EF324D96E0101010EF420FE
:10114800DA6E000EDE6E000EDD6E000100016151E8
:10115800070D050EF326000EF4220101000EF324FC
:10116800D96E0101010EF420DA6E280EDE6E160E1D
:10117800DD6E00010001612BB8C1B3F1B9C1B4F152
:101188000101A2EC0DF01200000E01010101B36F84
:101198000C0E0101B26F01019BEC0EF00101B2C10E
:1011A800B8F10101B3C1B9F1B8C1D9FFB9C1DAFFCA
:1011B8000101B7C1DFFF010120EE01F00101B851C3
:1011C800D9260101B951DA223A0EDF6E0001000179
:1011D8006151070D010EF326000EF4220101000EE5
:1011E800F324D96E0101010EF420DA6E0101B8C1B1
:1011F800DEFF0101B9C1DDFF000100016151070DEA
:10120800030EF326000EF4220101000EF324D96E1A
:101218000101010EF420DA6E000EDE6E000EDD6EA6
:10122800000100016151070D050EF326000EF4229E
:101238000101000EF324D96E0101010EF420DA6ECB
:101248008E0EDE6E1D0EDD6E00010001612BB8C131
:10125800B3F1B9C1B4F10101C2EC0DF01200000EF6
:10126800AC6E000EAB6E01010101B2A101D001D03C
:1012780001D0AC8801010101B2A301D001D002D094
:10128800AC8CAB8C01010101B2A501D001D001D019
:10129800AC8E01010101B2A701D001D002D0AB8808
:1012A80001D0AB8A01010101B2A901D001D001D05E
:1012B800AC849E9801010101B2AB01D001D001D0EC
:1012C800AB8601010101B2AD01D001D002D09D8AE7
:1012D80001D09D9A9E9A01010101B2AF01D001D0BF
:1012E80002D09D8801D09D98B3C1AFFF01010101D3
:1012F800B451B06EAC8AAB8E949C948EACA801D0DD
:1013080001D006D0ACBE01D001D002D0948C00D060
:1013180012000DC012F0136A20EE34F00B50D926DB
:101328000C50DA22DF50146E14500D0DF3500B24BC
:10133800156EF4500C20166E15C0D9FF16C0DAFFD2
:10134800DF50D8B401D001D003D0FF0E3AD039D045
:1013580020EE01F01550D9261650DA220DC0DFFF15
:1013680020EE02F01550D9261650DA220EC0DFFF03
:10137800030E1524016E000E1620026E0FC003F036
:1013880010C004F012C005F013C006F05CEC0DF0BC
:1013980020EE34F00B50D9260C50DA2210EE34F03F
:1013A8000B50E1260C50E222E750116E1128030B76
:1013B800DF6E15C0D9FF16C0DAFF010EDF6E010E11
:1013C80000D0120020EE0BF03050D9263150DA222E
:1013D800010EDF6E20EE0AF03050D9263150DA22A5
:1013E800000EDF6E00010001A251D8B401D001D077
:1013F80034D0C7AA01D001D018D020EE0CF030505C
:10140800D9263150DA22050EDF6E20EE0EF030506C
:10141800D9263150DA22DF2A20EE0DF03050D926B5
:101428003150DA22050EDF6E21D0C7A401D001D0D9
:1014380009D020EE0CF03050D9263150DA22080EAF
:10144800DF6E14D020EE0CF03050D9263150DA225D
:10145800070EDF6E0BD00AD009D020EE0CF030500A
:10146800D9263150DA22060EDF6E00D012000001B4
:101478000001606701D001D002D045D044D00001FE
:1014880036EC0CF000010001A5510001A411D8B4FC
:1014980001D001D002D037D036D000015BEC0FF07C
:1014A80000010001A3510001A211D8A401D001D06C
:1014B80002D029D028D00101010E00010001A36F3C
:1014C80001017C0E0001A26F000139EC0EF0000949
:1014D800D8B401D001D002D016D015D00001000E2A
:1014E80000010001A36F0001620E0001A26F00015C
:1014F80039EC0EF00009D8B401D001D002D003D0E5
:1015080002D0CFEC0FF01200000120EE12F0000123
:10151800D551D9260001D651DA22DF50026E0001DA
:1015280020EE11F00001D551D9260001D651DA225A
:10153800DF50025CD8B001D001D02BD0000120EEE2
:1015480012F00001D551D9260001D651DA22DF5018
:10155800026E0250010D090EF326000EF422F3501C
:1015680000010001D525D96EF45000010001D621F3
:10157800DA6EDF50016E2EEC0FF0000120EE12F053
:101588000001D551D9260001D651DA22DF2AF28C82
:1015980000D012000600EACFCAF0E1CFCBF0E2CFCC
:1015A800CCF0D9CFCDF0DACFCEF0F3CFCFF0F4CF67
:1015B800D0F0F6CFD1F0F7CFD2F0F8CFD3F0F5CF07
:1015C800D4F09EA601D001D004D09E966AEC00F01B
:1015D80000D0F2A401D001D004D0F294D4EC0BF0E6
:1015E80000D03BEC0AF0D4C0F5FFD3C0F8FFD2C05E
:1015F800F7FFD1C0F6FFD0C0F4FFCFC0F3FFCEC0D5
:10160800DAFFCDC0D9FFCCC0E2FFCBC0E1FFCAC032
:10161800EAFFC9C0E9FFC8C0FBFFC7C0FAFF110055
:10162800BDC1C0F1BEC1C1F10101BF6F020E010110
:101638000101C26F0101BF51C0C1D9FFC1C1DAFFA9
:10164800DF5001010101B36F0101BF6F300E0101CD
:101658000101B46F0101BF510101010E0101010136
:10166800B66F0101C20E0101B56F000E0101010143
:10167800B86F010E0101B76F010109EC07F0010114
:10168800BF6F010E01010101B36F0101BF510101DB
:10169800010E01010101B56F0101C20E0101B46F14
:1016A8000101F9EC05F01200010120EE34F001010E
:1016B800B251D9260101B351DA22000EDF6E0101C1
:1016C80020EE35F00101B251D9260101B351DA22D9
:1016D800000EDF6E0101B46F000E01010101B56F4C
:1016E8000101B451030E01010101B56501D001D01A
:1016F80002D01CD01BD001010101B5510D0DF350D2
:1017080001010101B225D96EF45001010101B32193
:10171800DA6E000EDF6E01010101B52B030E010127
:101728000101B56501D001D0E6D700D01200010152
:10173800B66F000E00010001606F0101B651000193
:10174800000E01010101B36F0001620E0101B26FC9
:10175800010158EC0BF00101010E01010101B36F09
:1017680001017C0E0101B26F010158EC0BF001017F
:10177800010E01010101B36F0101460E0101B26FB3
:10178800010158EC0BF00201020E01010101B36FD7
:101798000201000E0101B26F010158EC0BF01200BA
:1017A8008AA001D002D0010E01D0000E0001BC6F4A
:1017B8008A500001BC19FE0BBC198A6E0001BC6F6F
:1017C800000E00010001B86F0001BC510001BD6F9F
:1017D8000A0E00010001B96F0001BD51000E0001A1
:1017E8000001BB6F000E0001BA6F0001B1EC0EF0F2
:1017F800000E00010001A36F000E0001A26F00019E
:1018080092EC0FF01200F2AC01D001D00AD0000E19
:1018180001010101B56F000E0101B46F22D021D082
:1018280020D0010147EC0FF001010101B351010182
:10183800B211D8B401D001D00AD0000E01010101C3
:10184800B56F000E0101B46F0CD00BD00AD0000E9A
:1018580001010101B56F010E0101B46F02D001D081
:1018680000D01200F2AC01D001D00AD0000E000165
:101878000001A56F000E0001A46F22D021D020D056
:1018880000015BEC0FF000010001A3510001A2115F
:10189800D8B401D001D00AD0000E00010001A56F14
:1018A800000E0001A46F0CD00BD00AD0000E00016E
:1018B8000001A56F010E0001A46F02D001D000D075
:1018C8001200010107EC0CF001010101B551010101
:1018D800B411D8A401D001D016D0010147EC0FF003
:1018E80001010101B3510101B211D8A401D001D005
:1018F8000AD0000E01010101B76F010E0101B66F98
:101908000BD00AD009D0000E01010101B76F000EFB
:101918000101B66F01D000D01200B4C1BAF1B5C14F
:10192800BBF1B2C1B8F1B3C1B9F113D0BAC1D9FF93
:10193800BBC1DAFFB8C1E1FFB9C1E2FFDFCFE7FF02
:1019480001010101BA4BBB2B01010101B84BB92BB5
:1019580000D001010101B607D8A0B7070101B629D7
:10196800D8B4B729D8A401D001D0E0D700D012004C
:10197800A4C0AAF0A5C0ABF0A2C0A8F0A3C0A9F06B
:1019880013D0AAC0D9FFABC0DAFFA8C0E1FFA9C035
:10199800E2FFDFCFE7FF00010001AA4BAB2B0001FC
:1019A8000001A84BA92B00D000010001A607D8A070
:1019B800A7070001A629D8B4A729D8A401D001D027
:1019C800E0D700D012008AA201D002D0010E01D0C7
:1019D800000E1B6E1B468A501B18FD0B1B188A6EC7
:1019E80080EC0FF001C01DF002C01EF01B6E000E4F
:1019F800176E1B501C6E0B0E186E1C50000E1A6EC4
:101A0800000E196EF1EC0EF0000E026E000E016E63
:101A180089EC0FF0120001010101B4511E0AB51141
:101A2800D8A401D001D002D01CD01BD001010101E3
:101A3800B4511F0AB511D8A401D001D012D00101A8
:101A48000101B65101010101B825D96E0101010159
:101A5800B75101010101B921DA6E000EDF6E01D024
:101A680000D0120002EE00F0360EEE6AE806FDE144
:101A780001EE00F0B20EEE6AE806FDE100EE60F05D
:101A8800420EEE6AE806FDE1326A316A306AA40E57
:101A9800F66E1F0EF76E000EF86E0900F5CFD7F040
:101AA8000900F5CFD8F0000EF86E0001AFEF03F093
:101AB80003C009F004C00AF001C007F002C008F032
:101AC8000FD009C0D9FF0AC0DAFF07C0E1FF08C07C
:101AD800E2FFDFCFE7FF094A0A2A074A082A00D0AF
:101AE8000506D8A006060528D8B40628D8A401D02B
:101AF80001D0E7D700D01200B5C1D5F0B6C1D6F0F5
:101B0800000120EE08F00001D551D9260001D65178
:101B1800DA22000EDF6E0101B76F6C0E01010101C0
:101B2800B26F0101B751000E01010101B46F190E26
:101B38000101B36F010133EC09F01200B3C1B5F133
:101B4800B4C1B6F1010120EE02F00101B551D92668
:101B58000101B651DA220E0EDF6E010120EE02F00D
:101B68000101B551D9260101B651DA22DF50010130
:101B78000101B26F0101CCEC0FF01200B3C1B5F155
:101B8800B4C1B6F1010120EE02F00101B551D92628
:101B98000101B651DA220E0EDF6E010120EE02F0CD
:101BA8000101B551D9260101B651DA22DF500101F0
:101BB8000101B26F0101CCEC0FF01200010101012B
:101BC800B2517E0BCD6E01010101B2AD01D001D041
:101BD80002D0CD8E02D0CD9E00D0000ECF6E000E6A
:101BE800CE6E9E9001010101B2AF01D001D002D0AA
:101BF8009D8001D09D90CD801200010120EE35F02E
:101C08000101B251D9260101B351DA22DF50010195
:101C1800B46F0101B4510D0DF35001010101B2255A
:101C2800D96EF45001010101B321DA6EDF5000D002
:101C38001200F20E3216ABAC01D001D007D03290B0
:101C4800ABA001D001D002D0328000D0ABA401D02B
:101C580001D001D03284ABA201D001D001D03286AC
:101C6800AECF01F0015000D01200000120EE35F097
:101C78000001A251D9260001A351DA22DF50000148
:101C8800A46F0001A4510D0DF35000010001A2251D
:101C9800D96EF45000010001A321DA6EDF5000D0A4
:101CA80012000101010E01010101BD6F01017C0E4D
:101CB8000101BC6FCAC1BEF1CBC1BFF1CCC1C0F13B
:101CC800CDC1C1F1CEC1C2F1010159EC05F000D07E
:101CD80012000001000E01010101BD6F0001620E3A
:101CE8000101BC6FCAC1BEF1CBC1BFF1CCC1C0F10B
:101CF800CDC1C1F1CEC1C2F1010159EC05F000D04E
:101D08001200BDC1C0F1BEC1C1F189A401D002D089
:101D1800010E01D0000E0101BF6F0101BF47BF478F
:101D280089500101BF19FB0BBF19896E1200D7C07A
:101D3800B4F1D8C0B5F101010101B25100010001AF
:101D4800D72701010101B35100010001D823B4C113
:101D5800B2F1B5C1B3F100D012000101010E0001CA
:101D68000001AD6F01017C0E0001AC6FB8C0AEF090
:101D7800B9C0AFF0BAC0B0F0BBC0B1F0000186EC9A
:101D880006F000D01200BDC1C0F1BEC1C1F189A2E8
:101D980001D002D0010E01D0000E0101BF6F010178
:101DA800BF4789500101BF19FD0BBF19896E120089
:101DB80001010101B2517F0BD56E000ED76E000EE6
:101DC800D66EF29401010101B2AF01D001D002D068
:101DD800F28A01D0F29AD58E12000001000E0C6E24
:101DE8000001620E0B6E17C00DF018C00EF019C07E
:101DF8000FF01AC010F08DEC09F000D01200C58663
:101E080000D0C7A001D001D0FCD7C9CFB2F120ECD7
:101E18000FF001010101B25100D01200ACAC01D0A9
:101E280001D007D0AC9032A201D001D002D0AC8052
:101E380000D0B2C1ADFF120001D000D0C5501F0BB9
:101E4800D8A401D001D0FAD7C7B401D001D0F6D7B1
:101E580000D01200ACAC01D001D007D0AC9032A2B7
:101E680001D001D002D0AC8000D001C0ADFF12007B
:101E7800B2C1C9FF00D0C7B001D001D0FCD700D093
:101E880020EC0FF01200000EF2AE010E010101016C
:101E9800B26F0101B36B00D01200FA0E00F0E82E09
:101EA800FDD701010101B22FF8D700D01200000EB2
:101EB800F2AE010E00010001A26F0001A36B00D079
:101EC8001200B2C1D9FFB3C1DAFF000EDE6E000EF8
:101ED800DD6E1200C59AC58800D0C5B801D001D002
:101EE800FCD700D01200C58AC58800D0C5B801D07B
:101EF80001D0FCD700D01200CECF03F0CFCF04F032
:101F080003C001F004C002F0120001C003F002C0D7
:101F180004F004C0CFFF03C0CEFF1200A2C0A4F09B
:101F2800A3C0A5F0A5C0D7FFA4C0D6FF1200948611
:101F38009488C78E280EC66E280EC86E1200B2C1CD
:101F4800D9FFB3C1DAFFDE2A000EDD221200C580F8
:101F580000D0C5B001D001D0FCD700D01200C58494
:101F680000D0C5B401D001D0FCD700D01200C58282
:101F780000D0C5B201D001D0FCD700D01200B8C142
:101F8800BAF1B9C1BBF11200D08EF28EF28C1200F8
:0E1F9800B2C189FF1200D38E03001200980020
:020000040020DA
:08000000FFFFFFFFFFFFFFFF00
:020000040030CA
:0E000000FF08191EFF8080FF0FC00FE00F40A9
:00000001FF
